{
  "transactions": [
    {
      "hash": "0x7147e4af2823a101808c2e3a7d0168c395e9f358ea82ea51bf4ae42d398f49e3",
      "transactionType": "CALL",
      "contractName": null,
      "contractAddress": "0x609b1430b6575590f5c75bcb7db261007d5fed41",
      "function": "addAsset(bytes32,address,string,string)",
      "arguments": [
        "0x78b990e790955e3223e7f6026c5e6bae49272a811026f1d7a7abd2604b268465",
        "0xb2490e357980cE57bF5745e181e537a64Eb367B1",
        "MoonBridge LP - MOON",
        "mbMOON"
      ],
      "transaction": {
        "from": "0x536afd811809e2ea5d8a66ff0c42b7a5d9de2093",
        "to": "0x609b1430b6575590f5c75bcb7db261007d5fed41",
        "gas": "0x63072",
        "value": "0x0",
        "input": "0x084729b878b990e790955e3223e7f6026c5e6bae49272a811026f1d7a7abd2604b268465000000000000000000000000b2490e357980ce57bf5745e181e537a64eb367b1000000000000000000000000000000000000000000000000000000000000008000000000000000000000000000000000000000000000000000000000000000c000000000000000000000000000000000000000000000000000000000000000144d6f6f6e427269646765204c50202d204d4f4f4e00000000000000000000000000000000000000000000000000000000000000000000000000000000000000066d624d4f4f4e0000000000000000000000000000000000000000000000000000",
        "nonce": "0x8",
        "chainId": "0x1"
      },
      "additionalContracts": [
        {
          "transactionType": "CREATE",
          "contractName": null,
          "address": "0x088e89adf26e4158e59333c578396660ceec709d",
          "initCode": "0x3d602d80600a3d3981f3363d3d373d3d3d363d73e977a3adaa04a735844afd7f0f8c18a56ddddaf85af43d82803e903d91602b57fd5bf3"
        }
      ],
      "isFixedGasLimit": false
    },
    {
      "hash": "0x54b0cf66b273923e8c719b3e8de2351ba286fa32435fb5e72e96a29f91c76060",
      "transactionType": "CALL",
      "contractName": null,
      "contractAddress": "0x609b1430b6575590f5c75bcb7db261007d5fed41",
      "function": "addAsset(bytes32,address,string,string)",
      "arguments": [
        "0xaaaebeba3810b1e6b70781f14b2d72c1cb89c0b2b320c43bb67ff79f562f5ff4",
        "0xEeeeeEeeeEeEeeEeEeEeeEEEeeeeEeeeeeeeEEeE",
        "MoonBridge LP - ETH",
        "mbETH"
      ],
      "transaction": {
        "from": "0x536afd811809e2ea5d8a66ff0c42b7a5d9de2093",
        "to": "0x609b1430b6575590f5c75bcb7db261007d5fed41",
        "gas": "0x62bd3",
        "value": "0x0",
        "input": "0x084729b8aaaebeba3810b1e6b70781f14b2d72c1cb89c0b2b320c43bb67ff79f562f5ff4000000000000000000000000eeeeeeeeeeeeeeeeeeeeeeeeeeeeeeeeeeeeeeee000000000000000000000000000000000000000000000000000000000000008000000000000000000000000000000000000000000000000000000000000000c000000000000000000000000000000000000000000000000000000000000000134d6f6f6e427269646765204c50202d204554480000000000000000000000000000000000000000000000000000000000000000000000000000000000000000056d62455448000000000000000000000000000000000000000000000000000000",
        "nonce": "0x9",
        "chainId": "0x1"
      },
      "additionalContracts": [
        {
          "transactionType": "CREATE",
          "contractName": null,
          "address": "0x79919783d1530f5817d98d4c056999cb472c902b",
          "initCode": "0x3d602d80600a3d3981f3363d3d373d3d3d363d73e977a3adaa04a735844afd7f0f8c18a56ddddaf85af43d82803e903d91602b57fd5bf3"
        }
      ],
      "isFixedGasLimit": false
    },
    {
      "hash": "0x1f2c364d849e0a5b29934062f2d03b56a3ae041376415770d0c4aa942be77dbe",
      "transactionType": "CALL",
      "contractName": null,
      "contractAddress": "0x609b1430b6575590f5c75bcb7db261007d5fed41",
      "function": "addAsset(bytes32,address,string,string)",
      "arguments": [
        "0xd6aca1be9729c13d677335161321649cccae6a591554772516700f986f942eaa",
        "0xA0b86991c6218b36c1d19D4a2e9Eb0cE3606eB48",
        "MoonBridge LP - USDC",
        "mbUSDC"
      ],
      "transaction": {
        "from": "0x536afd811809e2ea5d8a66ff0c42b7a5d9de2093",
        "to": "0x609b1430b6575590f5c75bcb7db261007d5fed41",
        "gas": "0x62bf6",
        "value": "0x0",
        "input": "0x084729b8d6aca1be9729c13d677335161321649cccae6a591554772516700f986f942eaa000000000000000000000000a0b86991c6218b36c1d19d4a2e9eb0ce3606eb48000000000000000000000000000000000000000000000000000000000000008000000000000000000000000000000000000000000000000000000000000000c000000000000000000000000000000000000000000000000000000000000000144d6f6f6e427269646765204c50202d205553444300000000000000000000000000000000000000000000000000000000000000000000000000000000000000066d62555344430000000000000000000000000000000000000000000000000000",
        "nonce": "0xa",
        "chainId": "0x1"
      },
      "additionalContracts": [
        {
          "transactionType": "CREATE",
          "contractName": null,
          "address": "0x6de042ff6bdc5944977568cc405f07e78b18fb5a",
          "initCode": "0x3d602d80600a3d3981f3363d3d373d3d3d363d73e977a3adaa04a735844afd7f0f8c18a56ddddaf85af43d82803e903d91602b57fd5bf3"
        }
      ],
      "isFixedGasLimit": false
    },
    {
      "hash": "0x4ea0c2fefcf8f864ac15184b928a1b1c672f611fefe531f61bab9079674a15e5",
      "transactionType": "CALL",
      "contractName": null,
      "contractAddress": "0x609b1430b6575590f5c75bcb7db261007d5fed41",
      "function": "addAsset(bytes32,address,string,string)",
      "arguments": [
        "0xdd5622de5b9f651f37acd8a00c4f6c0fdac3845741e08a475a0878212aacd668",
        "0xC0F9bD5Fa5698B6505F643900FFA515Ea5dF54A9",
        "MoonBridge LP - DONUT",
        "mbDONUT"
      ],
      "transaction": {
        "from": "0x536afd811809e2ea5d8a66ff0c42b7a5d9de2093",
        "to": "0x609b1430b6575590f5c75bcb7db261007d5fed41",
        "gas": "0x62c19",
        "value": "0x0",
        "input": "0x084729b8dd5622de5b9f651f37acd8a00c4f6c0fdac3845741e08a475a0878212aacd668000000000000000000000000c0f9bd5fa5698b6505f643900ffa515ea5df54a9000000000000000000000000000000000000000000000000000000000000008000000000000000000000000000000000000000000000000000000000000000c000000000000000000000000000000000000000000000000000000000000000154d6f6f6e427269646765204c50202d20444f4e5554000000000000000000000000000000000000000000000000000000000000000000000000000000000000076d62444f4e555400000000000000000000000000000000000000000000000000",
        "nonce": "0xb",
        "chainId": "0x1"
      },
      "additionalContracts": [
        {
          "transactionType": "CREATE",
          "contractName": null,
          "address": "0x57b7855bc43b67933989bf8fcab23f747b45d781",
          "initCode": "0x3d602d80600a3d3981f3363d3d373d3d3d363d73e977a3adaa04a735844afd7f0f8c18a56ddddaf85af43d82803e903d91602b57fd5bf3"
        }
      ],
      "isFixedGasLimit": false
    }
  ],
  "receipts": [
    {
      "status": "0x1",
      "cumulativeGasUsed": "0x129c3e2",
      "logs": [
        {
          "address": "0x3a2f8ab98aefbe892dfcccf4095404610996a67f",
          "topics": [
            "0x9860c564cdaf58c10f9794cae677e0b82d804422ba5542dd4ffb2dc42591285f",
            "0x000000000000000000000000088e89adf26e4158e59333c578396660ceec709d",
            "0x000000000000000000000000609b1430b6575590f5c75bcb7db261007d5fed41"
          ],
          "data": "0x0000000000000000000000000000000000000000000000000000000000000040000000000000000000000000000000000000000000000000000000000000008000000000000000000000000000000000000000000000000000000000000000144d6f6f6e427269646765204c50202d204d4f4f4e00000000000000000000000000000000000000000000000000000000000000000000000000000000000000066d624d4f4f4e0000000000000000000000000000000000000000000000000000",
          "blockHash": "0xeea8db4ad0dac5d24b929598914255a6461b19f6b9d6a89a45abd2a1dd610616",
          "blockNumber": "0x1728e4b",
          "blockTimestamp": "0x697110d7",
          "transactionHash": "0x54b0cf66b273923e8c719b3e8de2351ba286fa32435fb5e72e96a29f91c76060",
          "transactionIndex": "0xc6",
          "logIndex": "0x211",
          "removed": false
        },
        {
          "address": "0x609b1430b6575590f5c75bcb7db261007d5fed41",
          "topics": [
            "0x262b5427891a0da5dc7f9b0786beb6c76f11d540b00b1f2d86135006059c6de9",
            "0x78b990e790955e3223e7f6026c5e6bae49272a811026f1d7a7abd2604b268465"
          ],
          "data": "0x000000000000000000000000b2490e357980ce57bf5745e181e537a64eb367b1000000000000000000000000088e89adf26e4158e59333c578396660ceec709d",
          "blockHash": "0xeea8db4ad0dac5d24b929598914255a6461b19f6b9d6a89a45abd2a1dd610616",
          "blockNumber": "0x1728e4b",
          "blockTimestamp": "0x697110d7",
          "transactionHash": "0x54b0cf66b273923e8c719b3e8de2351ba286fa32435fb5e72e96a29f91c76060",
          "transactionIndex": "0xc6",
          "logIndex": "0x212",
          "removed": false
        }
      ],
      "logsBloom": "0x00000000000000000000000000000010000000000000000002000000000000000000000000000000000001020000000000000000000400000000000000008000000000000800000000000000000000000000010000000000000000000000000000000000000004000000000000000000000000001000000000000000000000000000000000200000000000000000000000000000000000000000000000000000000000000000000000000000000010060000000000000000000000480000000000000001000008000000000000000000000000000000000800000000000000000000000000000000002000000000000000000000000000000000000000000004",
      "type": "0x2",
      "transactionHash": "0x54b0cf66b273923e8c719b3e8de2351ba286fa32435fb5e72e96a29f91c76060",
      "transactionIndex": "0xc6",
      "blockHash": "0xeea8db4ad0dac5d24b929598914255a6461b19f6b9d6a89a45abd2a1dd610616",
      "blockNumber": "0x1728e4b",
      "gasUsed": "0x47b1d",
      "effectiveGasPrice": "0x2fc03fe5",
      "from": "0x536afd811809e2ea5d8a66ff0c42b7a5d9de2093",
      "to": "0x609b1430b6575590f5c75bcb7db261007d5fed41",
      "contractAddress": null
    },
    {
      "status": "0x1",
      "cumulativeGasUsed": "0x130b902",
      "logs": [
        {
          "address": "0x3a2f8ab98aefbe892dfcccf4095404610996a67f",
          "topics": [
            "0x9860c564cdaf58c10f9794cae677e0b82d804422ba5542dd4ffb2dc42591285f",
            "0x00000000000000000000000079919783d1530f5817d98d4c056999cb472c902b",
            "0x000000000000000000000000609b1430b6575590f5c75bcb7db261007d5fed41"
          ],
          "data": "0x0000000000000000000000000000000000000000000000000000000000000040000000000000000000000000000000000000000000000000000000000000008000000000000000000000000000000000000000000000000000000000000000134d6f6f6e427269646765204c50202d204554480000000000000000000000000000000000000000000000000000000000000000000000000000000000000000056d62455448000000000000000000000000000000000000000000000000000000",
          "blockHash": "0xeea8db4ad0dac5d24b929598914255a6461b19f6b9d6a89a45abd2a1dd610616",
          "blockNumber": "0x1728e4b",
          "blockTimestamp": "0x697110d7",
          "transactionHash": "0x7147e4af2823a101808c2e3a7d0168c395e9f358ea82ea51bf4ae42d398f49e3",
          "transactionIndex": "0xcb",
          "logIndex": "0x217",
          "removed": false
        },
        {
          "address": "0x609b1430b6575590f5c75bcb7db261007d5fed41",
          "topics": [
            "0x262b5427891a0da5dc7f9b0786beb6c76f11d540b00b1f2d86135006059c6de9",
            "0xaaaebeba3810b1e6b70781f14b2d72c1cb89c0b2b320c43bb67ff79f562f5ff4"
          ],
          "data": "0x000000000000000000000000eeeeeeeeeeeeeeeeeeeeeeeeeeeeeeeeeeeeeeee00000000000000000000000079919783d1530f5817d98d4c056999cb472c902b",
          "blockHash": "0xeea8db4ad0dac5d24b929598914255a6461b19f6b9d6a89a45abd2a1dd610616",
          "blockNumber": "0x1728e4b",
          "blockTimestamp": "0x697110d7",
          "transactionHash": "0x7147e4af2823a101808c2e3a7d0168c395e9f358ea82ea51bf4ae42d398f49e3",
          "transactionIndex": "0xcb",
          "logIndex": "0x218",
          "removed": false
        }
      ],
      "logsBloom": "0x00000000000000000000000000000000000000000000000002000000000000000000000000000000000001000000000000000000000400000000000000008000001000000000000000000000000000000000010000000000000000000000000000000000000004000000000000000000000000041000000000000000000000000000000000000000000000008000000000000000000000000000000000000000000000000000000000000000000010060000000000000000000000480000000000000000000008000000000000000000000000400000000800001000000000000000000000080000002000000000000000000000000000000000000000000000",
      "type": "0x2",
      "transactionHash": "0x7147e4af2823a101808c2e3a7d0168c395e9f358ea82ea51bf4ae42d398f49e3",
      "transactionIndex": "0xcb",
      "blockHash": "0xeea8db4ad0dac5d24b929598914255a6461b19f6b9d6a89a45abd2a1dd610616",
      "blockNumber": "0x1728e4b",
      "gasUsed": "0x43839",
      "effectiveGasPrice": "0x2fc03fe5",
      "from": "0x536afd811809e2ea5d8a66ff0c42b7a5d9de2093",
      "to": "0x609b1430b6575590f5c75bcb7db261007d5fed41",
      "contractAddress": null
    },
    {
      "status": "0x1",
      "cumulativeGasUsed": "0x2361818",
      "logs": [
        {
          "address": "0x3a2f8ab98aefbe892dfcccf4095404610996a67f",
          "topics": [
            "0x9860c564cdaf58c10f9794cae677e0b82d804422ba5542dd4ffb2dc42591285f",
            "0x0000000000000000000000006de042ff6bdc5944977568cc405f07e78b18fb5a",
            "0x000000000000000000000000609b1430b6575590f5c75bcb7db261007d5fed41"
          ],
          "data": "0x0000000000000000000000000000000000000000000000000000000000000040000000000000000000000000000000000000000000000000000000000000008000000000000000000000000000000000000000000000000000000000000000144d6f6f6e427269646765204c50202d205553444300000000000000000000000000000000000000000000000000000000000000000000000000000000000000066d62555344430000000000000000000000000000000000000000000000000000",
          "blockHash": "0x60835011eeea19d34ad799848f212f70d949073ccaea6791348bcbf960e3d0cf",
          "blockNumber": "0x1728e4c",
          "blockTimestamp": "0x697110e3",
          "transactionHash": "0x1f2c364d849e0a5b29934062f2d03b56a3ae041376415770d0c4aa942be77dbe",
          "transactionIndex": "0xe9",
          "logIndex": "0x3af",
          "removed": false
        },
        {
          "address": "0x609b1430b6575590f5c75bcb7db261007d5fed41",
          "topics": [
            "0x262b5427891a0da5dc7f9b0786beb6c76f11d540b00b1f2d86135006059c6de9",
            "0xd6aca1be9729c13d677335161321649cccae6a591554772516700f986f942eaa"
          ],
          "data": "0x000000000000000000000000a0b86991c6218b36c1d19d4a2e9eb0ce3606eb480000000000000000000000006de042ff6bdc5944977568cc405f07e78b18fb5a",
          "blockHash": "0x60835011eeea19d34ad799848f212f70d949073ccaea6791348bcbf960e3d0cf",
          "blockNumber": "0x1728e4c",
          "blockTimestamp": "0x697110e3",
          "transactionHash": "0x1f2c364d849e0a5b29934062f2d03b56a3ae041376415770d0c4aa942be77dbe",
          "transactionIndex": "0xe9",
          "logIndex": "0x3b0",
          "removed": false
        }
      ],
      "logsBloom": "0x00000000000000000000000000000000000000000000000002000000000000000000000c00000000000001000000000000000000020400000000000000008000000000000000000000000000000000000000010000000000000000000000000000000000000004000000000000000000000000001000000000000000000000000000000000000000000000000000000000000000000000000000000000000000000000000000000000000000000010060000000000000000008000480000000000000000000008001000000000000000000000000000080800000000000000000000000000000000002000000000000000000000000000000000000000000000",
      "type": "0x2",
      "transactionHash": "0x1f2c364d849e0a5b29934062f2d03b56a3ae041376415770d0c4aa942be77dbe",
      "transactionIndex": "0xe9",
      "blockHash": "0x60835011eeea19d34ad799848f212f70d949073ccaea6791348bcbf960e3d0cf",
      "blockNumber": "0x1728e4c",
      "gasUsed": "0x43851",
      "effectiveGasPrice": "0x2ea24101",
      "from": "0x536afd811809e2ea5d8a66ff0c42b7a5d9de2093",
      "to": "0x609b1430b6575590f5c75bcb7db261007d5fed41",
      "contractAddress": null
    },
    {
      "status": "0x1",
      "cumulativeGasUsed": "0x1fab8dd",
      "logs": [
        {
          "address": "0x3a2f8ab98aefbe892dfcccf4095404610996a67f",
          "topics": [
            "0x9860c564cdaf58c10f9794cae677e0b82d804422ba5542dd4ffb2dc42591285f",
            "0x00000000000000000000000057b7855bc43b67933989bf8fcab23f747b45d781",
            "0x000000000000000000000000609b1430b6575590f5c75bcb7db261007d5fed41"
          ],
          "data": "0x0000000000000000000000000000000000000000000000000000000000000040000000000000000000000000000000000000000000000000000000000000008000000000000000000000000000000000000000000000000000000000000000154d6f6f6e427269646765204c50202d20444f4e5554000000000000000000000000000000000000000000000000000000000000000000000000000000000000076d62444f4e555400000000000000000000000000000000000000000000000000",
          "blockHash": "0xf35ba379378a2c4b9057232ba777fcf432e6cee59ac27661ec10b851670dd81c",
          "blockNumber": "0x1728e4e",
          "blockTimestamp": "0x697110fb",
          "transactionHash": "0x4ea0c2fefcf8f864ac15184b928a1b1c672f611fefe531f61bab9079674a15e5",
          "transactionIndex": "0x15b",
          "logIndex": "0x345",
          "removed": false
        },
        {
          "address": "0x609b1430b6575590f5c75bcb7db261007d5fed41",
          "topics": [
            "0x262b5427891a0da5dc7f9b0786beb6c76f11d540b00b1f2d86135006059c6de9",
            "0xdd5622de5b9f651f37acd8a00c4f6c0fdac3845741e08a475a0878212aacd668"
          ],
          "data": "0x000000000000000000000000c0f9bd5fa5698b6505f643900ffa515ea5df54a900000000000000000000000057b7855bc43b67933989bf8fcab23f747b45d781",
          "blockHash": "0xf35ba379378a2c4b9057232ba777fcf432e6cee59ac27661ec10b851670dd81c",
          "blockNumber": "0x1728e4e",
          "blockTimestamp": "0x697110fb",
          "transactionHash": "0x4ea0c2fefcf8f864ac15184b928a1b1c672f611fefe531f61bab9079674a15e5",
          "transactionIndex": "0x15b",
          "logIndex": "0x346",
          "removed": false
        }
      ],
      "logsBloom": "0x00000000000000000008000000000000000000000000000002000000000000000000000000000000000001000010000000000000000400000000000000008000000000000000000000000000000000001000010000000000000000000000000000000000000004000000000000000000000000001000000000000000000010000000000000000000000000000000000000000000000000000000000000010000000000000000000000000000000010064000000000000000000000480000000000000000000008000000000000000000000000000000000800000000000000000000000000000000002000000000000000000000000000000000000000000000",
      "type": "0x2",
      "transactionHash": "0x4ea0c2fefcf8f864ac15184b928a1b1c672f611fefe531f61bab9079674a15e5",
      "transactionIndex": "0x15b",
      "blockHash": "0xf35ba379378a2c4b9057232ba777fcf432e6cee59ac27661ec10b851670dd81c",
      "blockNumber": "0x1728e4e",
      "gasUsed": "0x43869",
      "effectiveGasPrice": "0x2c31b0ba",
      "from": "0x536afd811809e2ea5d8a66ff0c42b7a5d9de2093",
      "to": "0x609b1430b6575590f5c75bcb7db261007d5fed41",
      "contractAddress": null
    }
  ],
  "libraries": [],
  "pending": [],
  "returns": {},
  "timestamp": 1769017600131,
  "chain": 1,
  "commit": "fbc8a69"
}