{
  "transactions": [
    {
      "hash": "0xf8b19c2ce11d4827f6c1f7b4f2633424a5bcc8004524931337b80fe7a0ed7b73",
      "transactionType": "CALL",
      "contractName": null,
      "contractAddress": "0x609b1430b6575590f5c75bcb7db261007d5fed41",
      "function": "configureChain(uint256,bool,uint256,uint256)",
      "arguments": [
        "42170",
        "true",
        "0",
        "100000000000000"
      ],
      "transaction": {
        "from": "0x536afd811809e2ea5d8a66ff0c42b7a5d9de2093",
        "to": "0x609b1430b6575590f5c75bcb7db261007d5fed41",
        "gas": "0xd8b0",
        "value": "0x0",
        "input": "0x9909ac66000000000000000000000000000000000000000000000000000000000000a4ba0000000000000000000000000000000000000000000000000000000000000001000000000000000000000000000000000000000000000000000000000000000000000000000000000000000000000000000000000000000000005af3107a4000",
        "nonce": "0xc",
        "chainId": "0x1"
      },
      "additionalContracts": [],
      "isFixedGasLimit": false
    },
    {
      "hash": "0xd24164fdd06a4117c30816c2eef2fbd6633e1ca840c6fdb30338d72e88e0d507",
      "transactionType": "CALL",
      "contractName": null,
      "contractAddress": "0x609b1430b6575590f5c75bcb7db261007d5fed41",
      "function": "configureChain(uint256,bool,uint256,uint256)",
      "arguments": [
        "42161",
        "true",
        "0",
        "100000000000000"
      ],
      "transaction": {
        "from": "0x536afd811809e2ea5d8a66ff0c42b7a5d9de2093",
        "to": "0x609b1430b6575590f5c75bcb7db261007d5fed41",
        "gas": "0xd8b0",
        "value": "0x0",
        "input": "0x9909ac66000000000000000000000000000000000000000000000000000000000000a4b10000000000000000000000000000000000000000000000000000000000000001000000000000000000000000000000000000000000000000000000000000000000000000000000000000000000000000000000000000000000005af3107a4000",
        "nonce": "0xd",
        "chainId": "0x1"
      },
      "additionalContracts": [],
      "isFixedGasLimit": false
    },
    {
      "hash": "0xe8565b64de402e6c3c132fc12ede127a5c943ca5ee3110df39e252dc247492f3",
      "transactionType": "CALL",
      "contractName": null,
      "contractAddress": "0x609b1430b6575590f5c75bcb7db261007d5fed41",
      "function": "configureChain(uint256,bool,uint256,uint256)",
      "arguments": [
        "1",
        "true",
        "0",
        "1000000000000000"
      ],
      "transaction": {
        "from": "0x536afd811809e2ea5d8a66ff0c42b7a5d9de2093",
        "to": "0x609b1430b6575590f5c75bcb7db261007d5fed41",
        "gas": "0xd8b0",
        "value": "0x0",
        "input": "0x9909ac6600000000000000000000000000000000000000000000000000000000000000010000000000000000000000000000000000000000000000000000000000000001000000000000000000000000000000000000000000000000000000000000000000000000000000000000000000000000000000000000000000038d7ea4c68000",
        "nonce": "0xe",
        "chainId": "0x1"
      },
      "additionalContracts": [],
      "isFixedGasLimit": false
    },
    {
      "hash": "0x2c73a727f8e75526494af952c8679bfd7418e44cb5bc87a9910604180e2c9578",
      "transactionType": "CALL",
      "contractName": null,
      "contractAddress": "0x609b1430b6575590f5c75bcb7db261007d5fed41",
      "function": "configureChain(uint256,bool,uint256,uint256)",
      "arguments": [
        "100",
        "true",
        "0",
        "300000000000000000"
      ],
      "transaction": {
        "from": "0x536afd811809e2ea5d8a66ff0c42b7a5d9de2093",
        "to": "0x609b1430b6575590f5c75bcb7db261007d5fed41",
        "gas": "0xd8b0",
        "value": "0x0",
        "input": "0x9909ac660000000000000000000000000000000000000000000000000000000000000064000000000000000000000000000000000000000000000000000000000000000100000000000000000000000000000000000000000000000000000000000000000000000000000000000000000000000000000000000000000429d069189e0000",
        "nonce": "0xf",
        "chainId": "0x1"
      },
      "additionalContracts": [],
      "isFixedGasLimit": false
    },
    {
      "hash": "0x7016f710c16ad33b5d5ba86fd0f8b9d0f66bd521a00919fe002187a9acb03edb",
      "transactionType": "CALL",
      "contractName": null,
      "contractAddress": "0x609b1430b6575590f5c75bcb7db261007d5fed41",
      "function": "configureRoute(bytes32,uint256,bool)",
      "arguments": [
        "0x78b990e790955e3223e7f6026c5e6bae49272a811026f1d7a7abd2604b268465",
        "42170",
        "true"
      ],
      "transaction": {
        "from": "0x536afd811809e2ea5d8a66ff0c42b7a5d9de2093",
        "to": "0x609b1430b6575590f5c75bcb7db261007d5fed41",
        "gas": "0x133f6",
        "value": "0x0",
        "input": "0xadf835bf78b990e790955e3223e7f6026c5e6bae49272a811026f1d7a7abd2604b268465000000000000000000000000000000000000000000000000000000000000a4ba0000000000000000000000000000000000000000000000000000000000000001",
        "nonce": "0x10",
        "chainId": "0x1"
      },
      "additionalContracts": [],
      "isFixedGasLimit": false
    },
    {
      "hash": "0xbf714ee3e2334380d03378a529216e69af84dfad156cd52007eaeb6f97a18a01",
      "transactionType": "CALL",
      "contractName": null,
      "contractAddress": "0x609b1430b6575590f5c75bcb7db261007d5fed41",
      "function": "configureRoute(bytes32,uint256,bool)",
      "arguments": [
        "0x78b990e790955e3223e7f6026c5e6bae49272a811026f1d7a7abd2604b268465",
        "42161",
        "true"
      ],
      "transaction": {
        "from": "0x536afd811809e2ea5d8a66ff0c42b7a5d9de2093",
        "to": "0x609b1430b6575590f5c75bcb7db261007d5fed41",
        "gas": "0x133f6",
        "value": "0x0",
        "input": "0xadf835bf78b990e790955e3223e7f6026c5e6bae49272a811026f1d7a7abd2604b268465000000000000000000000000000000000000000000000000000000000000a4b10000000000000000000000000000000000000000000000000000000000000001",
        "nonce": "0x11",
        "chainId": "0x1"
      },
      "additionalContracts": [],
      "isFixedGasLimit": false
    },
    {
      "hash": "0xc7fded305c9bb39af17c557cfb9d9161d04f9e3f6a5ce213f25b4bb1d0f2cf6f",
      "transactionType": "CALL",
      "contractName": null,
      "contractAddress": "0x609b1430b6575590f5c75bcb7db261007d5fed41",
      "function": "configureRoute(bytes32,uint256,bool)",
      "arguments": [
        "0xaaaebeba3810b1e6b70781f14b2d72c1cb89c0b2b320c43bb67ff79f562f5ff4",
        "42170",
        "true"
      ],
      "transaction": {
        "from": "0x536afd811809e2ea5d8a66ff0c42b7a5d9de2093",
        "to": "0x609b1430b6575590f5c75bcb7db261007d5fed41",
        "gas": "0x133f6",
        "value": "0x0",
        "input": "0xadf835bfaaaebeba3810b1e6b70781f14b2d72c1cb89c0b2b320c43bb67ff79f562f5ff4000000000000000000000000000000000000000000000000000000000000a4ba0000000000000000000000000000000000000000000000000000000000000001",
        "nonce": "0x12",
        "chainId": "0x1"
      },
      "additionalContracts": [],
      "isFixedGasLimit": false
    },
    {
      "hash": "0x04e3e2a38b87ae78c6358d660ed8454ac709880355321ee80d8972cf3b95ae2b",
      "transactionType": "CALL",
      "contractName": null,
      "contractAddress": "0x609b1430b6575590f5c75bcb7db261007d5fed41",
      "function": "configureRoute(bytes32,uint256,bool)",
      "arguments": [
        "0xaaaebeba3810b1e6b70781f14b2d72c1cb89c0b2b320c43bb67ff79f562f5ff4",
        "42161",
        "true"
      ],
      "transaction": {
        "from": "0x536afd811809e2ea5d8a66ff0c42b7a5d9de2093",
        "to": "0x609b1430b6575590f5c75bcb7db261007d5fed41",
        "gas": "0x133f6",
        "value": "0x0",
        "input": "0xadf835bfaaaebeba3810b1e6b70781f14b2d72c1cb89c0b2b320c43bb67ff79f562f5ff4000000000000000000000000000000000000000000000000000000000000a4b10000000000000000000000000000000000000000000000000000000000000001",
        "nonce": "0x13",
        "chainId": "0x1"
      },
      "additionalContracts": [],
      "isFixedGasLimit": false
    },
    {
      "hash": "0x9b3e237373f8fb2296c270c2a4d8fb073d83efdf13b51499d632d646cfc827da",
      "transactionType": "CALL",
      "contractName": null,
      "contractAddress": "0x609b1430b6575590f5c75bcb7db261007d5fed41",
      "function": "configureRoute(bytes32,uint256,bool)",
      "arguments": [
        "0xaaaebeba3810b1e6b70781f14b2d72c1cb89c0b2b320c43bb67ff79f562f5ff4",
        "100",
        "true"
      ],
      "transaction": {
        "from": "0x536afd811809e2ea5d8a66ff0c42b7a5d9de2093",
        "to": "0x609b1430b6575590f5c75bcb7db261007d5fed41",
        "gas": "0x122c9",
        "value": "0x0",
        "input": "0xadf835bfaaaebeba3810b1e6b70781f14b2d72c1cb89c0b2b320c43bb67ff79f562f5ff400000000000000000000000000000000000000000000000000000000000000640000000000000000000000000000000000000000000000000000000000000001",
        "nonce": "0x14",
        "chainId": "0x1"
      },
      "additionalContracts": [],
      "isFixedGasLimit": false
    },
    {
      "hash": "0x5e73ac15d4addcf8f50cd2ad1020aeb25cb800cb676ef6cfbab922566ec5382c",
      "transactionType": "CALL",
      "contractName": null,
      "contractAddress": "0x609b1430b6575590f5c75bcb7db261007d5fed41",
      "function": "configureRoute(bytes32,uint256,bool)",
      "arguments": [
        "0xd6aca1be9729c13d677335161321649cccae6a591554772516700f986f942eaa",
        "42170",
        "true"
      ],
      "transaction": {
        "from": "0x536afd811809e2ea5d8a66ff0c42b7a5d9de2093",
        "to": "0x609b1430b6575590f5c75bcb7db261007d5fed41",
        "gas": "0x133f6",
        "value": "0x0",
        "input": "0xadf835bfd6aca1be9729c13d677335161321649cccae6a591554772516700f986f942eaa000000000000000000000000000000000000000000000000000000000000a4ba0000000000000000000000000000000000000000000000000000000000000001",
        "nonce": "0x15",
        "chainId": "0x1"
      },
      "additionalContracts": [],
      "isFixedGasLimit": false
    },
    {
      "hash": "0xc0d4da1e041da24b3631a3698bafc334a31934f959305c0af353c6dd5bb2e812",
      "transactionType": "CALL",
      "contractName": null,
      "contractAddress": "0x609b1430b6575590f5c75bcb7db261007d5fed41",
      "function": "configureRoute(bytes32,uint256,bool)",
      "arguments": [
        "0xd6aca1be9729c13d677335161321649cccae6a591554772516700f986f942eaa",
        "42161",
        "true"
      ],
      "transaction": {
        "from": "0x536afd811809e2ea5d8a66ff0c42b7a5d9de2093",
        "to": "0x609b1430b6575590f5c75bcb7db261007d5fed41",
        "gas": "0x133f6",
        "value": "0x0",
        "input": "0xadf835bfd6aca1be9729c13d677335161321649cccae6a591554772516700f986f942eaa000000000000000000000000000000000000000000000000000000000000a4b10000000000000000000000000000000000000000000000000000000000000001",
        "nonce": "0x16",
        "chainId": "0x1"
      },
      "additionalContracts": [],
      "isFixedGasLimit": false
    },
    {
      "hash": "0xd6bc6422f845201b1b4707f63f794e3c966d96c7a43336b0ac0b47889e4545aa",
      "transactionType": "CALL",
      "contractName": null,
      "contractAddress": "0x609b1430b6575590f5c75bcb7db261007d5fed41",
      "function": "configureRoute(bytes32,uint256,bool)",
      "arguments": [
        "0xd6aca1be9729c13d677335161321649cccae6a591554772516700f986f942eaa",
        "100",
        "true"
      ],
      "transaction": {
        "from": "0x536afd811809e2ea5d8a66ff0c42b7a5d9de2093",
        "to": "0x609b1430b6575590f5c75bcb7db261007d5fed41",
        "gas": "0x122c9",
        "value": "0x0",
        "input": "0xadf835bfd6aca1be9729c13d677335161321649cccae6a591554772516700f986f942eaa00000000000000000000000000000000000000000000000000000000000000640000000000000000000000000000000000000000000000000000000000000001",
        "nonce": "0x17",
        "chainId": "0x1"
      },
      "additionalContracts": [],
      "isFixedGasLimit": false
    },
    {
      "hash": "0x7d3295c468b223af761fb5797f839facfae2604a99b0ebd50080127bf7ae4303",
      "transactionType": "CALL",
      "contractName": null,
      "contractAddress": "0x609b1430b6575590f5c75bcb7db261007d5fed41",
      "function": "configureRoute(bytes32,uint256,bool)",
      "arguments": [
        "0xdd5622de5b9f651f37acd8a00c4f6c0fdac3845741e08a475a0878212aacd668",
        "42161",
        "true"
      ],
      "transaction": {
        "from": "0x536afd811809e2ea5d8a66ff0c42b7a5d9de2093",
        "to": "0x609b1430b6575590f5c75bcb7db261007d5fed41",
        "gas": "0x133f6",
        "value": "0x0",
        "input": "0xadf835bfdd5622de5b9f651f37acd8a00c4f6c0fdac3845741e08a475a0878212aacd668000000000000000000000000000000000000000000000000000000000000a4b10000000000000000000000000000000000000000000000000000000000000001",
        "nonce": "0x18",
        "chainId": "0x1"
      },
      "additionalContracts": [],
      "isFixedGasLimit": false
    },
    {
      "hash": "0xf7191a8fbdcd1b71709b2f9b36314d46aa068d4fff1f47978ff34cfeeae416d2",
      "transactionType": "CALL",
      "contractName": null,
      "contractAddress": "0x609b1430b6575590f5c75bcb7db261007d5fed41",
      "function": "configureRoute(bytes32,uint256,bool)",
      "arguments": [
        "0xdd5622de5b9f651f37acd8a00c4f6c0fdac3845741e08a475a0878212aacd668",
        "100",
        "true"
      ],
      "transaction": {
        "from": "0x536afd811809e2ea5d8a66ff0c42b7a5d9de2093",
        "to": "0x609b1430b6575590f5c75bcb7db261007d5fed41",
        "gas": "0x122c9",
        "value": "0x0",
        "input": "0xadf835bfdd5622de5b9f651f37acd8a00c4f6c0fdac3845741e08a475a0878212aacd66800000000000000000000000000000000000000000000000000000000000000640000000000000000000000000000000000000000000000000000000000000001",
        "nonce": "0x19",
        "chainId": "0x1"
      },
      "additionalContracts": [],
      "isFixedGasLimit": false
    }
  ],
  "receipts": [
    {
      "status": "0x1",
      "cumulativeGasUsed": "0x1a3269a",
      "logs": [
        {
          "address": "0x609b1430b6575590f5c75bcb7db261007d5fed41",
          "topics": [
            "0xc26f0cbb36b42b4fd4a827d792584da4cd9a64d212f88b3404feb9dd52ddeef2",
            "0x000000000000000000000000000000000000000000000000000000000000a4ba"
          ],
          "data": "0x0000000000000000000000000000000000000000000000000000000000000001",
          "blockHash": "0xb7644b23096c151bda2f4793f7cf89f9aefc858f65f9ecfdd014aabf07591f7b",
          "blockNumber": "0x1728e50",
          "blockTimestamp": "0x69711113",
          "transactionHash": "0xe8565b64de402e6c3c132fc12ede127a5c943ca5ee3110df39e252dc247492f3",
          "transactionIndex": "0x128",
          "logIndex": "0x3d4",
          "removed": false
        }
      ],
      "logsBloom": "0x00000000000000000000000000000000000000000000000002008000002000000000000000000000000000000000000000000000000000000000000000000000000000000000000400000000000000000000000000000000000000000000000000000000000004000000000000000000000000000000200000000000000000000000000000000000000000000000000000000000000100000000000000000000000000000000000000000000000010000000000000000000000000000000000000000000000000000000000000000000000000000000000000000000000000000000000000000000000000000000000000040000000000000000000000000000",
      "type": "0x2",
      "transactionHash": "0xe8565b64de402e6c3c132fc12ede127a5c943ca5ee3110df39e252dc247492f3",
      "transactionIndex": "0x128",
      "blockHash": "0xb7644b23096c151bda2f4793f7cf89f9aefc858f65f9ecfdd014aabf07591f7b",
      "blockNumber": "0x1728e50",
      "gasUsed": "0x942a",
      "effectiveGasPrice": "0x2e612d90",
      "from": "0x536afd811809e2ea5d8a66ff0c42b7a5d9de2093",
      "to": "0x609b1430b6575590f5c75bcb7db261007d5fed41",
      "contractAddress": null
    },
    {
      "status": "0x1",
      "cumulativeGasUsed": "0xaf45ca",
      "logs": [
        {
          "address": "0x609b1430b6575590f5c75bcb7db261007d5fed41",
          "topics": [
            "0xc26f0cbb36b42b4fd4a827d792584da4cd9a64d212f88b3404feb9dd52ddeef2",
            "0x000000000000000000000000000000000000000000000000000000000000a4b1"
          ],
          "data": "0x0000000000000000000000000000000000000000000000000000000000000001",
          "blockHash": "0xfa13d2a3fc7a941fd067dda4c078d63ca4d4638b40bd4230beb06a09cd8a28ff",
          "blockNumber": "0x1728e51",
          "blockTimestamp": "0x6971111f",
          "transactionHash": "0xd24164fdd06a4117c30816c2eef2fbd6633e1ca840c6fdb30338d72e88e0d507",
          "transactionIndex": "0x60",
          "logIndex": "0x131",
          "removed": false
        }
      ],
      "logsBloom": "0x00000000000000000000000000000000000000000000000002008000002000000000000000000000000000000000000000000000000000000000000000000000000000000000000000000000000000000000000000000000000000000000000000000000000004000000000000000000000000000000200000000000000000000000000000000000000000000000000000000000000000000000000000000000000000000000000000000000000010000000000000000000000000000000000000000000000000010000000000000000000000000000004000000000000000000000000000000000000000000000100000000000000000000000000000000000",
      "type": "0x2",
      "transactionHash": "0xd24164fdd06a4117c30816c2eef2fbd6633e1ca840c6fdb30338d72e88e0d507",
      "transactionIndex": "0x60",
      "blockHash": "0xfa13d2a3fc7a941fd067dda4c078d63ca4d4638b40bd4230beb06a09cd8a28ff",
      "blockNumber": "0x1728e51",
      "gasUsed": "0x942a",
      "effectiveGasPrice": "0x2e406823",
      "from": "0x536afd811809e2ea5d8a66ff0c42b7a5d9de2093",
      "to": "0x609b1430b6575590f5c75bcb7db261007d5fed41",
      "contractAddress": null
    },
    {
      "status": "0x1",
      "cumulativeGasUsed": "0xafd9f4",
      "logs": [
        {
          "address": "0x609b1430b6575590f5c75bcb7db261007d5fed41",
          "topics": [
            "0xc26f0cbb36b42b4fd4a827d792584da4cd9a64d212f88b3404feb9dd52ddeef2",
            "0x0000000000000000000000000000000000000000000000000000000000000001"
          ],
          "data": "0x0000000000000000000000000000000000000000000000000000000000000001",
          "blockHash": "0xfa13d2a3fc7a941fd067dda4c078d63ca4d4638b40bd4230beb06a09cd8a28ff",
          "blockNumber": "0x1728e51",
          "blockTimestamp": "0x6971111f",
          "transactionHash": "0xf8b19c2ce11d4827f6c1f7b4f2633424a5bcc8004524931337b80fe7a0ed7b73",
          "transactionIndex": "0x61",
          "logIndex": "0x132",
          "removed": false
        }
      ],
      "logsBloom": "0x00000000000000000000000000000000000000000000000002008000002000000000000000000000000000000000000000000000000000000000000000040000000000000000000000000000000000000000000000040000000000000000000000000000000004000000000000000000000000000000200000000000000000000000000000000000000000000000000000000000000000000000000000000000000000000000000000000000000010000000000000000000000000000000000000000000000000000000000000000000000000000000000000000000000040000000000000000000000000000000000000000000000000000000000000000000",
      "type": "0x2",
      "transactionHash": "0xf8b19c2ce11d4827f6c1f7b4f2633424a5bcc8004524931337b80fe7a0ed7b73",
      "transactionIndex": "0x61",
      "blockHash": "0xfa13d2a3fc7a941fd067dda4c078d63ca4d4638b40bd4230beb06a09cd8a28ff",
      "blockNumber": "0x1728e51",
      "gasUsed": "0x942a",
      "effectiveGasPrice": "0x2e406823",
      "from": "0x536afd811809e2ea5d8a66ff0c42b7a5d9de2093",
      "to": "0x609b1430b6575590f5c75bcb7db261007d5fed41",
      "contractAddress": null
    },
    {
      "status": "0x1",
      "cumulativeGasUsed": "0x14565b6",
      "logs": [
        {
          "address": "0x609b1430b6575590f5c75bcb7db261007d5fed41",
          "topics": [
            "0xc26f0cbb36b42b4fd4a827d792584da4cd9a64d212f88b3404feb9dd52ddeef2",
            "0x0000000000000000000000000000000000000000000000000000000000000064"
          ],
          "data": "0x0000000000000000000000000000000000000000000000000000000000000001",
          "blockHash": "0xe45af2ac580716088dcca14b07b13d7dfa1d5dd18ca8b8c910782e98c42cc178",
          "blockNumber": "0x1728e52",
          "blockTimestamp": "0x6971112b",
          "transactionHash": "0x2c73a727f8e75526494af952c8679bfd7418e44cb5bc87a9910604180e2c9578",
          "transactionIndex": "0xcc",
          "logIndex": "0x246",
          "removed": false
        }
      ],
      "logsBloom": "0x00000000000000000000000000000000000000000000000002008000002000000000000000000000000000000000000000010000000000000000000000080000000000000000000000000000000000000000000000000000000000000000000000000000000004000000000000000000000000000000200000000000000000000000000000000000000000000000000000000000000000000000000000000000000000000000000000000000000010000000000000000000000000000000000000000000000000000000000000000000000000000000000000000000000000000000000000000000000000000000000000000000000000008000000000000000",
      "type": "0x2",
      "transactionHash": "0x2c73a727f8e75526494af952c8679bfd7418e44cb5bc87a9910604180e2c9578",
      "transactionIndex": "0xcc",
      "blockHash": "0xe45af2ac580716088dcca14b07b13d7dfa1d5dd18ca8b8c910782e98c42cc178",
      "blockNumber": "0x1728e52",
      "gasUsed": "0x942a",
      "effectiveGasPrice": "0x2d55a378",
      "from": "0x536afd811809e2ea5d8a66ff0c42b7a5d9de2093",
      "to": "0x609b1430b6575590f5c75bcb7db261007d5fed41",
      "contractAddress": null
    },
    {
      "status": "0x1",
      "cumulativeGasUsed": "0x1230c64",
      "logs": [
        {
          "address": "0x609b1430b6575590f5c75bcb7db261007d5fed41",
          "topics": [
            "0xd68a4688bd5f6e6286e0f9b8dd4ff4f107bded4cf3f8df0ff32e14d2b7262c1c",
            "0x78b990e790955e3223e7f6026c5e6bae49272a811026f1d7a7abd2604b268465",
            "0x000000000000000000000000000000000000000000000000000000000000a4ba"
          ],
          "data": "0x0000000000000000000000000000000000000000000000000000000000000001",
          "blockHash": "0x71249a55e29fe07a01f47304c6138b78d386d8f4547e4746e042723d767644c1",
          "blockNumber": "0x1728e53",
          "blockTimestamp": "0x69711137",
          "transactionHash": "0x9b3e237373f8fb2296c270c2a4d8fb073d83efdf13b51499d632d646cfc827da",
          "transactionIndex": "0xea",
          "logIndex": "0x203",
          "removed": false
        }
      ],
      "logsBloom": "0x00000000000000000000000000000000000000000000000002000000000000000000000000000000000000020000000000000000000000000000000000000010000000000000000400000000000000000000000000000000000000000004000000000000000004000000000000000000000000000000000000000000000000000000000000200000000000000000000000000000000100000000000000000000000000000000000000000000000010000000000000000000000000000000000000000000000100000000000000000000000000000000000000000000000000000000000000000000000000000000000000040000000000000000000000000004",
      "type": "0x2",
      "transactionHash": "0x9b3e237373f8fb2296c270c2a4d8fb073d83efdf13b51499d632d646cfc827da",
      "transactionIndex": "0xea",
      "blockHash": "0x71249a55e29fe07a01f47304c6138b78d386d8f4547e4746e042723d767644c1",
      "blockNumber": "0x1728e53",
      "gasUsed": "0xd293",
      "effectiveGasPrice": "0x2c82c9a0",
      "from": "0x536afd811809e2ea5d8a66ff0c42b7a5d9de2093",
      "to": "0x609b1430b6575590f5c75bcb7db261007d5fed41",
      "contractAddress": null
    },
    {
      "status": "0x1",
      "cumulativeGasUsed": "0x123def7",
      "logs": [
        {
          "address": "0x609b1430b6575590f5c75bcb7db261007d5fed41",
          "topics": [
            "0xd68a4688bd5f6e6286e0f9b8dd4ff4f107bded4cf3f8df0ff32e14d2b7262c1c",
            "0x78b990e790955e3223e7f6026c5e6bae49272a811026f1d7a7abd2604b268465",
            "0x000000000000000000000000000000000000000000000000000000000000a4b1"
          ],
          "data": "0x0000000000000000000000000000000000000000000000000000000000000001",
          "blockHash": "0x71249a55e29fe07a01f47304c6138b78d386d8f4547e4746e042723d767644c1",
          "blockNumber": "0x1728e53",
          "blockTimestamp": "0x69711137",
          "transactionHash": "0xc0d4da1e041da24b3631a3698bafc334a31934f959305c0af353c6dd5bb2e812",
          "transactionIndex": "0xeb",
          "logIndex": "0x204",
          "removed": false
        }
      ],
      "logsBloom": "0x00000000000000000000000000000000000000000000000002000000000000000000000000000000000000020000000000000000000000000000000000000010000000000000000000000000000000000000000000000000000000000004000000000000000004000000000000000000000000000000000000000000000000000000000000200000000000000000000000000000000000000000000000000000000000000000000000000000000010000000000000000000000000000000000000000000000100010000000000000000000000000000004000000000000000000000000000000000000000000000100000000000000000000000000000000004",
      "type": "0x2",
      "transactionHash": "0xc0d4da1e041da24b3631a3698bafc334a31934f959305c0af353c6dd5bb2e812",
      "transactionIndex": "0xeb",
      "blockHash": "0x71249a55e29fe07a01f47304c6138b78d386d8f4547e4746e042723d767644c1",
      "blockNumber": "0x1728e53",
      "gasUsed": "0xd293",
      "effectiveGasPrice": "0x2c82c9a0",
      "from": "0x536afd811809e2ea5d8a66ff0c42b7a5d9de2093",
      "to": "0x609b1430b6575590f5c75bcb7db261007d5fed41",
      "contractAddress": null
    },
    {
      "status": "0x1",
      "cumulativeGasUsed": "0x124b18a",
      "logs": [
        {
          "address": "0x609b1430b6575590f5c75bcb7db261007d5fed41",
          "topics": [
            "0xd68a4688bd5f6e6286e0f9b8dd4ff4f107bded4cf3f8df0ff32e14d2b7262c1c",
            "0xaaaebeba3810b1e6b70781f14b2d72c1cb89c0b2b320c43bb67ff79f562f5ff4",
            "0x000000000000000000000000000000000000000000000000000000000000a4ba"
          ],
          "data": "0x0000000000000000000000000000000000000000000000000000000000000001",
          "blockHash": "0x71249a55e29fe07a01f47304c6138b78d386d8f4547e4746e042723d767644c1",
          "blockNumber": "0x1728e53",
          "blockTimestamp": "0x69711137",
          "transactionHash": "0xbf714ee3e2334380d03378a529216e69af84dfad156cd52007eaeb6f97a18a01",
          "transactionIndex": "0xec",
          "logIndex": "0x205",
          "removed": false
        }
      ],
      "logsBloom": "0x00000000000000000000000000000000000000000000000002000000000000000000000000000000000000000000000000000000000000000000000000000010000000000000000400000000000000000000000000000000000000000004000000000000000004000000000000000000000000040000000000000000000000000000000000000000000000008000000000000000000100000000000000000000000000000000000000000000000010000000000000000000000000000000000000000000000100000000000000000000000000000000000000001000000000000000000000000000000000000000000000040000000000000000000000000000",
      "type": "0x2",
      "transactionHash": "0xbf714ee3e2334380d03378a529216e69af84dfad156cd52007eaeb6f97a18a01",
      "transactionIndex": "0xec",
      "blockHash": "0x71249a55e29fe07a01f47304c6138b78d386d8f4547e4746e042723d767644c1",
      "blockNumber": "0x1728e53",
      "gasUsed": "0xd293",
      "effectiveGasPrice": "0x2c82c9a0",
      "from": "0x536afd811809e2ea5d8a66ff0c42b7a5d9de2093",
      "to": "0x609b1430b6575590f5c75bcb7db261007d5fed41",
      "contractAddress": null
    },
    {
      "status": "0x1",
      "cumulativeGasUsed": "0x125841d",
      "logs": [
        {
          "address": "0x609b1430b6575590f5c75bcb7db261007d5fed41",
          "topics": [
            "0xd68a4688bd5f6e6286e0f9b8dd4ff4f107bded4cf3f8df0ff32e14d2b7262c1c",
            "0xaaaebeba3810b1e6b70781f14b2d72c1cb89c0b2b320c43bb67ff79f562f5ff4",
            "0x000000000000000000000000000000000000000000000000000000000000a4b1"
          ],
          "data": "0x0000000000000000000000000000000000000000000000000000000000000001",
          "blockHash": "0x71249a55e29fe07a01f47304c6138b78d386d8f4547e4746e042723d767644c1",
          "blockNumber": "0x1728e53",
          "blockTimestamp": "0x69711137",
          "transactionHash": "0xd6bc6422f845201b1b4707f63f794e3c966d96c7a43336b0ac0b47889e4545aa",
          "transactionIndex": "0xed",
          "logIndex": "0x206",
          "removed": false
        }
      ],
      "logsBloom": "0x00000000000000000000000000000000000000000000000002000000000000000000000000000000000000000000000000000000000000000000000000000010000000000000000000000000000000000000000000000000000000000004000000000000000004000000000000000000000000040000000000000000000000000000000000000000000000008000000000000000000000000000000000000000000000000000000000000000000010000000000000000000000000000000000000000000000100010000000000000000000000000000004000001000000000000000000000000000000000000000100000000000000000000000000000000000",
      "type": "0x2",
      "transactionHash": "0xd6bc6422f845201b1b4707f63f794e3c966d96c7a43336b0ac0b47889e4545aa",
      "transactionIndex": "0xed",
      "blockHash": "0x71249a55e29fe07a01f47304c6138b78d386d8f4547e4746e042723d767644c1",
      "blockNumber": "0x1728e53",
      "gasUsed": "0xd293",
      "effectiveGasPrice": "0x2c82c9a0",
      "from": "0x536afd811809e2ea5d8a66ff0c42b7a5d9de2093",
      "to": "0x609b1430b6575590f5c75bcb7db261007d5fed41",
      "contractAddress": null
    },
    {
      "status": "0x1",
      "cumulativeGasUsed": "0x12656a4",
      "logs": [
        {
          "address": "0x609b1430b6575590f5c75bcb7db261007d5fed41",
          "topics": [
            "0xd68a4688bd5f6e6286e0f9b8dd4ff4f107bded4cf3f8df0ff32e14d2b7262c1c",
            "0xaaaebeba3810b1e6b70781f14b2d72c1cb89c0b2b320c43bb67ff79f562f5ff4",
            "0x0000000000000000000000000000000000000000000000000000000000000064"
          ],
          "data": "0x0000000000000000000000000000000000000000000000000000000000000001",
          "blockHash": "0x71249a55e29fe07a01f47304c6138b78d386d8f4547e4746e042723d767644c1",
          "blockNumber": "0x1728e53",
          "blockTimestamp": "0x69711137",
          "transactionHash": "0xc7fded305c9bb39af17c557cfb9d9161d04f9e3f6a5ce213f25b4bb1d0f2cf6f",
          "transactionIndex": "0xee",
          "logIndex": "0x207",
          "removed": false
        }
      ],
      "logsBloom": "0x00000000000000000000000000000000000000000000000002000000000000000000000000000000000000000000000000010000000000000000000000080010000000000000000000000000000000000000000000000000000000000004000000000000000004000000000000000000000000040000000000000000000000000000000000000000000000008000000000000000000000000000000000000000000000000000000000000000000010000000000000000000000000000000000000000000000100000000000000000000000000000000000000001000000000000000000000000000000000000000000000000000000000008000000000000000",
      "type": "0x2",
      "transactionHash": "0xc7fded305c9bb39af17c557cfb9d9161d04f9e3f6a5ce213f25b4bb1d0f2cf6f",
      "transactionIndex": "0xee",
      "blockHash": "0x71249a55e29fe07a01f47304c6138b78d386d8f4547e4746e042723d767644c1",
      "blockNumber": "0x1728e53",
      "gasUsed": "0xd287",
      "effectiveGasPrice": "0x2c82c9a0",
      "from": "0x536afd811809e2ea5d8a66ff0c42b7a5d9de2093",
      "to": "0x609b1430b6575590f5c75bcb7db261007d5fed41",
      "contractAddress": null
    },
    {
      "status": "0x1",
      "cumulativeGasUsed": "0x1272937",
      "logs": [
        {
          "address": "0x609b1430b6575590f5c75bcb7db261007d5fed41",
          "topics": [
            "0xd68a4688bd5f6e6286e0f9b8dd4ff4f107bded4cf3f8df0ff32e14d2b7262c1c",
            "0xd6aca1be9729c13d677335161321649cccae6a591554772516700f986f942eaa",
            "0x000000000000000000000000000000000000000000000000000000000000a4ba"
          ],
          "data": "0x0000000000000000000000000000000000000000000000000000000000000001",
          "blockHash": "0x71249a55e29fe07a01f47304c6138b78d386d8f4547e4746e042723d767644c1",
          "blockNumber": "0x1728e53",
          "blockTimestamp": "0x69711137",
          "transactionHash": "0x7016f710c16ad33b5d5ba86fd0f8b9d0f66bd521a00919fe002187a9acb03edb",
          "transactionIndex": "0xef",
          "logIndex": "0x208",
          "removed": false
        }
      ],
      "logsBloom": "0x00000000000000000000000000000000000000000000000002000000000000000000000800000000000000000000000000000000020000000000000000000010000000000000000400000000000000000000000000000000000000000004000000000000000004000000000000000000000000000000000000000000000000000000000000000000000000000000000000000000000100000000000000000000000000000000000000000000000010000000000000000000000000000000000000000000000100000000000000000000000000000000080000000000000000000000000000000000000000000000000000040000000000000000000000000000",
      "type": "0x2",
      "transactionHash": "0x7016f710c16ad33b5d5ba86fd0f8b9d0f66bd521a00919fe002187a9acb03edb",
      "transactionIndex": "0xef",
      "blockHash": "0x71249a55e29fe07a01f47304c6138b78d386d8f4547e4746e042723d767644c1",
      "blockNumber": "0x1728e53",
      "gasUsed": "0xd293",
      "effectiveGasPrice": "0x2c82c9a0",
      "from": "0x536afd811809e2ea5d8a66ff0c42b7a5d9de2093",
      "to": "0x609b1430b6575590f5c75bcb7db261007d5fed41",
      "contractAddress": null
    },
    {
      "status": "0x1",
      "cumulativeGasUsed": "0x127fbca",
      "logs": [
        {
          "address": "0x609b1430b6575590f5c75bcb7db261007d5fed41",
          "topics": [
            "0xd68a4688bd5f6e6286e0f9b8dd4ff4f107bded4cf3f8df0ff32e14d2b7262c1c",
            "0xd6aca1be9729c13d677335161321649cccae6a591554772516700f986f942eaa",
            "0x000000000000000000000000000000000000000000000000000000000000a4b1"
          ],
          "data": "0x0000000000000000000000000000000000000000000000000000000000000001",
          "blockHash": "0x71249a55e29fe07a01f47304c6138b78d386d8f4547e4746e042723d767644c1",
          "blockNumber": "0x1728e53",
          "blockTimestamp": "0x69711137",
          "transactionHash": "0x04e3e2a38b87ae78c6358d660ed8454ac709880355321ee80d8972cf3b95ae2b",
          "transactionIndex": "0xf0",
          "logIndex": "0x209",
          "removed": false
        }
      ],
      "logsBloom": "0x00000000000000000000000000000000000000000000000002000000000000000000000800000000000000000000000000000000020000000000000000000010000000000000000000000000000000000000000000000000000000000004000000000000000004000000000000000000000000000000000000000000000000000000000000000000000000000000000000000000000000000000000000000000000000000000000000000000000010000000000000000000000000000000000000000000000100010000000000000000000000000000084000000000000000000000000000000000000000000000100000000000000000000000000000000000",
      "type": "0x2",
      "transactionHash": "0x04e3e2a38b87ae78c6358d660ed8454ac709880355321ee80d8972cf3b95ae2b",
      "transactionIndex": "0xf0",
      "blockHash": "0x71249a55e29fe07a01f47304c6138b78d386d8f4547e4746e042723d767644c1",
      "blockNumber": "0x1728e53",
      "gasUsed": "0xd293",
      "effectiveGasPrice": "0x2c82c9a0",
      "from": "0x536afd811809e2ea5d8a66ff0c42b7a5d9de2093",
      "to": "0x609b1430b6575590f5c75bcb7db261007d5fed41",
      "contractAddress": null
    },
    {
      "status": "0x1",
      "cumulativeGasUsed": "0x128ce51",
      "logs": [
        {
          "address": "0x609b1430b6575590f5c75bcb7db261007d5fed41",
          "topics": [
            "0xd68a4688bd5f6e6286e0f9b8dd4ff4f107bded4cf3f8df0ff32e14d2b7262c1c",
            "0xd6aca1be9729c13d677335161321649cccae6a591554772516700f986f942eaa",
            "0x0000000000000000000000000000000000000000000000000000000000000064"
          ],
          "data": "0x0000000000000000000000000000000000000000000000000000000000000001",
          "blockHash": "0x71249a55e29fe07a01f47304c6138b78d386d8f4547e4746e042723d767644c1",
          "blockNumber": "0x1728e53",
          "blockTimestamp": "0x69711137",
          "transactionHash": "0x7d3295c468b223af761fb5797f839facfae2604a99b0ebd50080127bf7ae4303",
          "transactionIndex": "0xf1",
          "logIndex": "0x20a",
          "removed": false
        }
      ],
      "logsBloom": "0x00000000000000000000000000000000000000000000000002000000000000000000000800000000000000000000000000010000020000000000000000080010000000000000000000000000000000000000000000000000000000000004000000000000000004000000000000000000000000000000000000000000000000000000000000000000000000000000000000000000000000000000000000000000000000000000000000000000000010000000000000000000000000000000000000000000000100000000000000000000000000000000080000000000000000000000000000000000000000000000000000000000000000008000000000000000",
      "type": "0x2",
      "transactionHash": "0x7d3295c468b223af761fb5797f839facfae2604a99b0ebd50080127bf7ae4303",
      "transactionIndex": "0xf1",
      "blockHash": "0x71249a55e29fe07a01f47304c6138b78d386d8f4547e4746e042723d767644c1",
      "blockNumber": "0x1728e53",
      "gasUsed": "0xd287",
      "effectiveGasPrice": "0x2c82c9a0",
      "from": "0x536afd811809e2ea5d8a66ff0c42b7a5d9de2093",
      "to": "0x609b1430b6575590f5c75bcb7db261007d5fed41",
      "contractAddress": null
    },
    {
      "status": "0x1",
      "cumulativeGasUsed": "0x129a0e4",
      "logs": [
        {
          "address": "0x609b1430b6575590f5c75bcb7db261007d5fed41",
          "topics": [
            "0xd68a4688bd5f6e6286e0f9b8dd4ff4f107bded4cf3f8df0ff32e14d2b7262c1c",
            "0xdd5622de5b9f651f37acd8a00c4f6c0fdac3845741e08a475a0878212aacd668",
            "0x000000000000000000000000000000000000000000000000000000000000a4b1"
          ],
          "data": "0x0000000000000000000000000000000000000000000000000000000000000001",
          "blockHash": "0x71249a55e29fe07a01f47304c6138b78d386d8f4547e4746e042723d767644c1",
          "blockNumber": "0x1728e53",
          "blockTimestamp": "0x69711137",
          "transactionHash": "0x5e73ac15d4addcf8f50cd2ad1020aeb25cb800cb676ef6cfbab922566ec5382c",
          "transactionIndex": "0xf2",
          "logIndex": "0x20b",
          "removed": false
        }
      ],
      "logsBloom": "0x00000000000000000008000000000000000000000000000002000000000000000000000000000000000000000010000000000000000000000000000000000010000000000000000000000000000000000000000000000000000000000004000000000000000004000000000000000000000000000000000000000000000000000000000000000000000000000000000000000000000000000000000000010000000000000000000000000000000010000000000000000000000000000000000000000000000100010000000000000000000000000000004000000000000000000000000000000000000000000000100000000000000000000000000000000000",
      "type": "0x2",
      "transactionHash": "0x5e73ac15d4addcf8f50cd2ad1020aeb25cb800cb676ef6cfbab922566ec5382c",
      "transactionIndex": "0xf2",
      "blockHash": "0x71249a55e29fe07a01f47304c6138b78d386d8f4547e4746e042723d767644c1",
      "blockNumber": "0x1728e53",
      "gasUsed": "0xd293",
      "effectiveGasPrice": "0x2c82c9a0",
      "from": "0x536afd811809e2ea5d8a66ff0c42b7a5d9de2093",
      "to": "0x609b1430b6575590f5c75bcb7db261007d5fed41",
      "contractAddress": null
    },
    {
      "status": "0x1",
      "cumulativeGasUsed": "0x12a736b",
      "logs": [
        {
          "address": "0x609b1430b6575590f5c75bcb7db261007d5fed41",
          "topics": [
            "0xd68a4688bd5f6e6286e0f9b8dd4ff4f107bded4cf3f8df0ff32e14d2b7262c1c",
            "0xdd5622de5b9f651f37acd8a00c4f6c0fdac3845741e08a475a0878212aacd668",
            "0x0000000000000000000000000000000000000000000000000000000000000064"
          ],
          "data": "0x0000000000000000000000000000000000000000000000000000000000000001",
          "blockHash": "0x71249a55e29fe07a01f47304c6138b78d386d8f4547e4746e042723d767644c1",
          "blockNumber": "0x1728e53",
          "blockTimestamp": "0x69711137",
          "transactionHash": "0xf7191a8fbdcd1b71709b2f9b36314d46aa068d4fff1f47978ff34cfeeae416d2",
          "transactionIndex": "0xf3",
          "logIndex": "0x20c",
          "removed": false
        }
      ],
      "logsBloom": "0x00000000000000000008000000000000000000000000000002000000000000000000000000000000000000000010000000010000000000000000000000080010000000000000000000000000000000000000000000000000000000000004000000000000000004000000000000000000000000000000000000000000000000000000000000000000000000000000000000000000000000000000000000010000000000000000000000000000000010000000000000000000000000000000000000000000000100000000000000000000000000000000000000000000000000000000000000000000000000000000000000000000000000008000000000000000",
      "type": "0x2",
      "transactionHash": "0xf7191a8fbdcd1b71709b2f9b36314d46aa068d4fff1f47978ff34cfeeae416d2",
      "transactionIndex": "0xf3",
      "blockHash": "0x71249a55e29fe07a01f47304c6138b78d386d8f4547e4746e042723d767644c1",
      "blockNumber": "0x1728e53",
      "gasUsed": "0xd287",
      "effectiveGasPrice": "0x2c82c9a0",
      "from": "0x536afd811809e2ea5d8a66ff0c42b7a5d9de2093",
      "to": "0x609b1430b6575590f5c75bcb7db261007d5fed41",
      "contractAddress": null
    }
  ],
  "libraries": [],
  "pending": [],
  "returns": {},
  "timestamp": 1769017659532,
  "chain": 1,
  "commit": "fbc8a69"
}