{
  "transactions": [
    {
      "hash": "0x5f4c9b1f97bd156e0638c3dfa95dc0e5e79067af5f5585c48f47461095545905",
      "transactionType": "CALL",
      "contractName": null,
      "contractAddress": "0x7bff7f20dd583e0665a5c62a06d2e78ee6f23a01",
      "function": "addAsset(bytes32,address,string,string)",
      "arguments": [
        "0xaaaebeba3810b1e6b70781f14b2d72c1cb89c0b2b320c43bb67ff79f562f5ff4",
        "0x6A023CCd1ff6F2045C3309768eAd9E68F978f6e1",
        "MoonBridge LP - WETH",
        "mbWETH"
      ],
      "transaction": {
        "from": "0x536afd811809e2ea5d8a66ff0c42b7a5d9de2093",
        "to": "0x7bff7f20dd583e0665a5c62a06d2e78ee6f23a01",
        "gas": "0x63072",
        "value": "0x0",
        "input": "0x084729b8aaaebeba3810b1e6b70781f14b2d72c1cb89c0b2b320c43bb67ff79f562f5ff40000000000000000000000006a023ccd1ff6f2045c3309768ead9e68f978f6e1000000000000000000000000000000000000000000000000000000000000008000000000000000000000000000000000000000000000000000000000000000c000000000000000000000000000000000000000000000000000000000000000144d6f6f6e427269646765204c50202d205745544800000000000000000000000000000000000000000000000000000000000000000000000000000000000000066d62574554480000000000000000000000000000000000000000000000000000",
        "nonce": "0x4",
        "chainId": "0x64"
      },
      "additionalContracts": [
        {
          "transactionType": "CREATE",
          "contractName": null,
          "address": "0xd8007845a1676df93bb520a9ca6d3dfef882ae36",
          "initCode": "0x3d602d80600a3d3981f3363d3d373d3d3d363d73d99e66cfa4609de2a4ec069f5b61a195d7fba8485af43d82803e903d91602b57fd5bf3"
        }
      ],
      "isFixedGasLimit": false
    },
    {
      "hash": "0xf53cf885abbaa40f521a47efcf0d550d00f8dda3a5de25821e221ac9f172d9f6",
      "transactionType": "CALL",
      "contractName": null,
      "contractAddress": "0x7bff7f20dd583e0665a5c62a06d2e78ee6f23a01",
      "function": "addAsset(bytes32,address,string,string)",
      "arguments": [
        "0xd6aca1be9729c13d677335161321649cccae6a591554772516700f986f942eaa",
        "0xDDAfbb505ad214D7b80b1f830fcCc89B60fb7A83",
        "MoonBridge LP - USDC",
        "mbUSDC"
      ],
      "transaction": {
        "from": "0x536afd811809e2ea5d8a66ff0c42b7a5d9de2093",
        "to": "0x7bff7f20dd583e0665a5c62a06d2e78ee6f23a01",
        "gas": "0x62bf6",
        "value": "0x0",
        "input": "0x084729b8d6aca1be9729c13d677335161321649cccae6a591554772516700f986f942eaa000000000000000000000000ddafbb505ad214d7b80b1f830fccc89b60fb7a83000000000000000000000000000000000000000000000000000000000000008000000000000000000000000000000000000000000000000000000000000000c000000000000000000000000000000000000000000000000000000000000000144d6f6f6e427269646765204c50202d205553444300000000000000000000000000000000000000000000000000000000000000000000000000000000000000066d62555344430000000000000000000000000000000000000000000000000000",
        "nonce": "0x5",
        "chainId": "0x64"
      },
      "additionalContracts": [
        {
          "transactionType": "CREATE",
          "contractName": null,
          "address": "0x38b57a3fb3b4a2b9e097b522e267ec80a4926025",
          "initCode": "0x3d602d80600a3d3981f3363d3d373d3d3d363d73d99e66cfa4609de2a4ec069f5b61a195d7fba8485af43d82803e903d91602b57fd5bf3"
        }
      ],
      "isFixedGasLimit": false
    },
    {
      "hash": "0x89c7cecb7a7f879fc7de1c03401480403bf25d925a2ebdacfb0ae09eb72b835d",
      "transactionType": "CALL",
      "contractName": null,
      "contractAddress": "0x7bff7f20dd583e0665a5c62a06d2e78ee6f23a01",
      "function": "addAsset(bytes32,address,string,string)",
      "arguments": [
        "0xdd5622de5b9f651f37acd8a00c4f6c0fdac3845741e08a475a0878212aacd668",
        "0x524B969793a64a602342d89BC2789D43a016B13A",
        "MoonBridge LP - DONUT",
        "mbDONUT"
      ],
      "transaction": {
        "from": "0x536afd811809e2ea5d8a66ff0c42b7a5d9de2093",
        "to": "0x7bff7f20dd583e0665a5c62a06d2e78ee6f23a01",
        "gas": "0x62c19",
        "value": "0x0",
        "input": "0x084729b8dd5622de5b9f651f37acd8a00c4f6c0fdac3845741e08a475a0878212aacd668000000000000000000000000524b969793a64a602342d89bc2789d43a016b13a000000000000000000000000000000000000000000000000000000000000008000000000000000000000000000000000000000000000000000000000000000c000000000000000000000000000000000000000000000000000000000000000154d6f6f6e427269646765204c50202d20444f4e5554000000000000000000000000000000000000000000000000000000000000000000000000000000000000076d62444f4e555400000000000000000000000000000000000000000000000000",
        "nonce": "0x6",
        "chainId": "0x64"
      },
      "additionalContracts": [
        {
          "transactionType": "CREATE",
          "contractName": null,
          "address": "0x1f52276e8d7027c01254103256bc8a25d909bd63",
          "initCode": "0x3d602d80600a3d3981f3363d3d373d3d3d363d73d99e66cfa4609de2a4ec069f5b61a195d7fba8485af43d82803e903d91602b57fd5bf3"
        }
      ],
      "isFixedGasLimit": false
    }
  ],
  "receipts": [
    {
      "status": "0x1",
      "cumulativeGasUsed": "0x7fe6ac",
      "logs": [
        {
          "address": "0x93fbaf6951ef62bfa8a06ee3327ec456a8f0d308",
          "topics": [
            "0x9860c564cdaf58c10f9794cae677e0b82d804422ba5542dd4ffb2dc42591285f",
            "0x000000000000000000000000d8007845a1676df93bb520a9ca6d3dfef882ae36",
            "0x0000000000000000000000007bff7f20dd583e0665a5c62a06d2e78ee6f23a01"
          ],
          "data": "0x0000000000000000000000000000000000000000000000000000000000000040000000000000000000000000000000000000000000000000000000000000008000000000000000000000000000000000000000000000000000000000000000144d6f6f6e427269646765204c50202d205745544800000000000000000000000000000000000000000000000000000000000000000000000000000000000000066d62574554480000000000000000000000000000000000000000000000000000",
          "blockHash": "0xdfba7655228f59a3cf3f15fc130540aeb1dd1f83ff60d1247e747209935be590",
          "blockNumber": "0x2a3a274",
          "transactionHash": "0x89c7cecb7a7f879fc7de1c03401480403bf25d925a2ebdacfb0ae09eb72b835d",
          "transactionIndex": "0x11",
          "logIndex": "0x59",
          "removed": false
        },
        {
          "address": "0x7bff7f20dd583e0665a5c62a06d2e78ee6f23a01",
          "topics": [
            "0x262b5427891a0da5dc7f9b0786beb6c76f11d540b00b1f2d86135006059c6de9",
            "0xaaaebeba3810b1e6b70781f14b2d72c1cb89c0b2b320c43bb67ff79f562f5ff4"
          ],
          "data": "0x0000000000000000000000006a023ccd1ff6f2045c3309768ead9e68f978f6e1000000000000000000000000d8007845a1676df93bb520a9ca6d3dfef882ae36",
          "blockHash": "0xdfba7655228f59a3cf3f15fc130540aeb1dd1f83ff60d1247e747209935be590",
          "blockNumber": "0x2a3a274",
          "transactionHash": "0x89c7cecb7a7f879fc7de1c03401480403bf25d925a2ebdacfb0ae09eb72b835d",
          "transactionIndex": "0x11",
          "logIndex": "0x5a",
          "removed": false
        }
      ],
      "logsBloom": "0x00000010000010000000000000000000000000000000000000000000000000000000000000001000000000000000000000000000000040000000000000008000000000000000000000010000000000000000000000004000000080000000000000000000000000000000000000000000000000041800000000000000000000000000000000000000000000008000000000000000000000000000000000000000000000000200000000000000000000000000000000000800000040480000000000000000000008000000000000000000000000000040000800001000000000000000000000000000000000000000000000000000000000000000000000000000",
      "type": "0x2",
      "transactionHash": "0x89c7cecb7a7f879fc7de1c03401480403bf25d925a2ebdacfb0ae09eb72b835d",
      "transactionIndex": "0x11",
      "blockHash": "0xdfba7655228f59a3cf3f15fc130540aeb1dd1f83ff60d1247e747209935be590",
      "blockNumber": "0x2a3a274",
      "gasUsed": "0x47b1d",
      "effectiveGasPrice": "0x37eb",
      "blobGasUsed": "0x0",
      "from": "0x536afd811809e2ea5d8a66ff0c42b7a5d9de2093",
      "to": "0x7bff7f20dd583e0665a5c62a06d2e78ee6f23a01",
      "contractAddress": null
    },
    {
      "status": "0x1",
      "cumulativeGasUsed": "0x841efd",
      "logs": [
        {
          "address": "0x93fbaf6951ef62bfa8a06ee3327ec456a8f0d308",
          "topics": [
            "0x9860c564cdaf58c10f9794cae677e0b82d804422ba5542dd4ffb2dc42591285f",
            "0x00000000000000000000000038b57a3fb3b4a2b9e097b522e267ec80a4926025",
            "0x0000000000000000000000007bff7f20dd583e0665a5c62a06d2e78ee6f23a01"
          ],
          "data": "0x0000000000000000000000000000000000000000000000000000000000000040000000000000000000000000000000000000000000000000000000000000008000000000000000000000000000000000000000000000000000000000000000144d6f6f6e427269646765204c50202d205553444300000000000000000000000000000000000000000000000000000000000000000000000000000000000000066d62555344430000000000000000000000000000000000000000000000000000",
          "blockHash": "0xdfba7655228f59a3cf3f15fc130540aeb1dd1f83ff60d1247e747209935be590",
          "blockNumber": "0x2a3a274",
          "transactionHash": "0x5f4c9b1f97bd156e0638c3dfa95dc0e5e79067af5f5585c48f47461095545905",
          "transactionIndex": "0x12",
          "logIndex": "0x5b",
          "removed": false
        },
        {
          "address": "0x7bff7f20dd583e0665a5c62a06d2e78ee6f23a01",
          "topics": [
            "0x262b5427891a0da5dc7f9b0786beb6c76f11d540b00b1f2d86135006059c6de9",
            "0xd6aca1be9729c13d677335161321649cccae6a591554772516700f986f942eaa"
          ],
          "data": "0x000000000000000000000000ddafbb505ad214d7b80b1f830fccc89b60fb7a8300000000000000000000000038b57a3fb3b4a2b9e097b522e267ec80a4926025",
          "blockHash": "0xdfba7655228f59a3cf3f15fc130540aeb1dd1f83ff60d1247e747209935be590",
          "blockNumber": "0x2a3a274",
          "transactionHash": "0x5f4c9b1f97bd156e0638c3dfa95dc0e5e79067af5f5585c48f47461095545905",
          "transactionIndex": "0x12",
          "logIndex": "0x5c",
          "removed": false
        }
      ],
      "logsBloom": "0x00000010000000000000000000000000000010000000000000000000000000000000000800000000000000000000000000000000020040000000000000008000000000001000000000010000000000000000000000004000000080000000000000000000000000000000000000000000000000001800000000000000000000000000000000000000000000000000000000000000000000000000000000000000000008000200000000000000000000000000000000000800000000480000000000000000000008000000000000000000000000000040080800000000000000000000000000000000000000000000000000000000000000000000000000000000",
      "type": "0x2",
      "transactionHash": "0x5f4c9b1f97bd156e0638c3dfa95dc0e5e79067af5f5585c48f47461095545905",
      "transactionIndex": "0x12",
      "blockHash": "0xdfba7655228f59a3cf3f15fc130540aeb1dd1f83ff60d1247e747209935be590",
      "blockNumber": "0x2a3a274",
      "gasUsed": "0x43851",
      "effectiveGasPrice": "0x37eb",
      "blobGasUsed": "0x0",
      "from": "0x536afd811809e2ea5d8a66ff0c42b7a5d9de2093",
      "to": "0x7bff7f20dd583e0665a5c62a06d2e78ee6f23a01",
      "contractAddress": null
    },
    {
      "status": "0x1",
      "cumulativeGasUsed": "0x885766",
      "logs": [
        {
          "address": "0x93fbaf6951ef62bfa8a06ee3327ec456a8f0d308",
          "topics": [
            "0x9860c564cdaf58c10f9794cae677e0b82d804422ba5542dd4ffb2dc42591285f",
            "0x0000000000000000000000001f52276e8d7027c01254103256bc8a25d909bd63",
            "0x0000000000000000000000007bff7f20dd583e0665a5c62a06d2e78ee6f23a01"
          ],
          "data": "0x0000000000000000000000000000000000000000000000000000000000000040000000000000000000000000000000000000000000000000000000000000008000000000000000000000000000000000000000000000000000000000000000154d6f6f6e427269646765204c50202d20444f4e5554000000000000000000000000000000000000000000000000000000000000000000000000000000000000076d62444f4e555400000000000000000000000000000000000000000000000000",
          "blockHash": "0xdfba7655228f59a3cf3f15fc130540aeb1dd1f83ff60d1247e747209935be590",
          "blockNumber": "0x2a3a274",
          "transactionHash": "0xf53cf885abbaa40f521a47efcf0d550d00f8dda3a5de25821e221ac9f172d9f6",
          "transactionIndex": "0x13",
          "logIndex": "0x5d",
          "removed": false
        },
        {
          "address": "0x7bff7f20dd583e0665a5c62a06d2e78ee6f23a01",
          "topics": [
            "0x262b5427891a0da5dc7f9b0786beb6c76f11d540b00b1f2d86135006059c6de9",
            "0xdd5622de5b9f651f37acd8a00c4f6c0fdac3845741e08a475a0878212aacd668"
          ],
          "data": "0x000000000000000000000000524b969793a64a602342d89bc2789d43a016b13a0000000000000000000000001f52276e8d7027c01254103256bc8a25d909bd63",
          "blockHash": "0xdfba7655228f59a3cf3f15fc130540aeb1dd1f83ff60d1247e747209935be590",
          "blockNumber": "0x2a3a274",
          "transactionHash": "0xf53cf885abbaa40f521a47efcf0d550d00f8dda3a5de25821e221ac9f172d9f6",
          "transactionIndex": "0x13",
          "logIndex": "0x5e",
          "removed": false
        }
      ],
      "logsBloom": "0x00000010000000000008000000000000000000000000000000000000000000000000000000000000000000000010000000000000000040000000000000008000000000000000000000010000000000000000000100004000000080000000000000000000000000000000000000000000000000001800000000000000000000000000000000000000000000000000000000000000000000000000000400010000000000000200000000000000000000000000000000000800000000480000000000000000000008000000000000000000000000000040000800000000000000000000000000000000000000000000000002000000000000000000000000000000",
      "type": "0x2",
      "transactionHash": "0xf53cf885abbaa40f521a47efcf0d550d00f8dda3a5de25821e221ac9f172d9f6",
      "transactionIndex": "0x13",
      "blockHash": "0xdfba7655228f59a3cf3f15fc130540aeb1dd1f83ff60d1247e747209935be590",
      "blockNumber": "0x2a3a274",
      "gasUsed": "0x43869",
      "effectiveGasPrice": "0x37eb",
      "blobGasUsed": "0x0",
      "from": "0x536afd811809e2ea5d8a66ff0c42b7a5d9de2093",
      "to": "0x7bff7f20dd583e0665a5c62a06d2e78ee6f23a01",
      "contractAddress": null
    }
  ],
  "libraries": [],
  "pending": [],
  "returns": {},
  "timestamp": 1769016856512,
  "chain": 100,
  "commit": "fbc8a69"
}