{
  "transactions": [
    {
      "hash": "0x4289e5c51759a63198796d8b2d12ac409103fc0de8d1512da4c413d0099ddec9",
      "transactionType": "CALL",
      "contractName": null,
      "contractAddress": "0xd7454c00e705d724140b31ddc9a63e45cc0e1b9c",
      "function": "addAsset(bytes32,address,string,string)",
      "arguments": [
        "0x78b990e790955e3223e7f6026c5e6bae49272a811026f1d7a7abd2604b268465",
        "0x0057Ac2d777797d31CD3f8f13bF5e927571D6Ad0",
        "MoonBridge LP - MOON",
        "mbMOON"
      ],
      "transaction": {
        "from": "0x536afd811809e2ea5d8a66ff0c42b7a5d9de2093",
        "to": "0xd7454c00e705d724140b31ddc9a63e45cc0e1b9c",
        "gas": "0xad55e",
        "value": "0x0",
        "input": "0x084729b878b990e790955e3223e7f6026c5e6bae49272a811026f1d7a7abd2604b2684650000000000000000000000000057ac2d777797d31cd3f8f13bf5e927571d6ad0000000000000000000000000000000000000000000000000000000000000008000000000000000000000000000000000000000000000000000000000000000c000000000000000000000000000000000000000000000000000000000000000144d6f6f6e427269646765204c50202d204d4f4f4e00000000000000000000000000000000000000000000000000000000000000000000000000000000000000066d624d4f4f4e0000000000000000000000000000000000000000000000000000",
        "nonce": "0x7",
        "chainId": "0xa4ba"
      },
      "additionalContracts": [
        {
          "transactionType": "CREATE",
          "contractName": null,
          "address": "0x80601a7bcad9ab95694a4976e880d3f2d5b6d181",
          "initCode": "0x3d602d80600a3d3981f3363d3d373d3d3d363d737bff7f20dd583e0665a5c62a06d2e78ee6f23a015af43d82803e903d91602b57fd5bf3"
        }
      ],
      "isFixedGasLimit": false
    },
    {
      "hash": "0xa9db90a7693e6ea0378f15ff7b82a8556df05c492e3de9b563e59ae250b19fca",
      "transactionType": "CALL",
      "contractName": null,
      "contractAddress": "0xd7454c00e705d724140b31ddc9a63e45cc0e1b9c",
      "function": "addAsset(bytes32,address,string,string)",
      "arguments": [
        "0xaaaebeba3810b1e6b70781f14b2d72c1cb89c0b2b320c43bb67ff79f562f5ff4",
        "0xEeeeeEeeeEeEeeEeEeEeeEEEeeeeEeeeeeeeEEeE",
        "MoonBridge LP - ETH",
        "mbETH"
      ],
      "transaction": {
        "from": "0x536afd811809e2ea5d8a66ff0c42b7a5d9de2093",
        "to": "0xd7454c00e705d724140b31ddc9a63e45cc0e1b9c",
        "gas": "0xa7922",
        "value": "0x0",
        "input": "0x084729b8aaaebeba3810b1e6b70781f14b2d72c1cb89c0b2b320c43bb67ff79f562f5ff4000000000000000000000000eeeeeeeeeeeeeeeeeeeeeeeeeeeeeeeeeeeeeeee000000000000000000000000000000000000000000000000000000000000008000000000000000000000000000000000000000000000000000000000000000c000000000000000000000000000000000000000000000000000000000000000134d6f6f6e427269646765204c50202d204554480000000000000000000000000000000000000000000000000000000000000000000000000000000000000000056d62455448000000000000000000000000000000000000000000000000000000",
        "nonce": "0x8",
        "chainId": "0xa4ba"
      },
      "additionalContracts": [
        {
          "transactionType": "CREATE",
          "contractName": null,
          "address": "0x2e1d61c383d2838862f522dcae85d4320177e778",
          "initCode": "0x3d602d80600a3d3981f3363d3d373d3d3d363d737bff7f20dd583e0665a5c62a06d2e78ee6f23a015af43d82803e903d91602b57fd5bf3"
        }
      ],
      "isFixedGasLimit": false
    },
    {
      "hash": "0xfc914683e33eb7e80e3bd979708ca18a87ef9f1c68f0c905642c589893a67507",
      "transactionType": "CALL",
      "contractName": null,
      "contractAddress": "0xd7454c00e705d724140b31ddc9a63e45cc0e1b9c",
      "function": "addAsset(bytes32,address,string,string)",
      "arguments": [
        "0xd6aca1be9729c13d677335161321649cccae6a591554772516700f986f942eaa",
        "0x750ba8b76187092B0D1E87E28daaf484d1b5273b",
        "MoonBridge LP - USDC",
        "mbUSDC"
      ],
      "transaction": {
        "from": "0x536afd811809e2ea5d8a66ff0c42b7a5d9de2093",
        "to": "0xd7454c00e705d724140b31ddc9a63e45cc0e1b9c",
        "gas": "0xad94e",
        "value": "0x0",
        "input": "0x084729b8d6aca1be9729c13d677335161321649cccae6a591554772516700f986f942eaa000000000000000000000000750ba8b76187092b0d1e87e28daaf484d1b5273b000000000000000000000000000000000000000000000000000000000000008000000000000000000000000000000000000000000000000000000000000000c000000000000000000000000000000000000000000000000000000000000000144d6f6f6e427269646765204c50202d205553444300000000000000000000000000000000000000000000000000000000000000000000000000000000000000066d62555344430000000000000000000000000000000000000000000000000000",
        "nonce": "0x9",
        "chainId": "0xa4ba"
      },
      "additionalContracts": [
        {
          "transactionType": "CREATE",
          "contractName": null,
          "address": "0xd80fb8c8e57bf56009bd787fc800e6fc3a268d34",
          "initCode": "0x3d602d80600a3d3981f3363d3d373d3d3d363d737bff7f20dd583e0665a5c62a06d2e78ee6f23a015af43d82803e903d91602b57fd5bf3"
        }
      ],
      "isFixedGasLimit": false
    }
  ],
  "receipts": [
    {
      "status": "0x1",
      "cumulativeGasUsed": "0x798da",
      "logs": [
        {
          "address": "0xe977a3adaa04a735844afd7f0f8c18a56ddddaf8",
          "topics": [
            "0x9860c564cdaf58c10f9794cae677e0b82d804422ba5542dd4ffb2dc42591285f",
            "0x00000000000000000000000080601a7bcad9ab95694a4976e880d3f2d5b6d181",
            "0x000000000000000000000000d7454c00e705d724140b31ddc9a63e45cc0e1b9c"
          ],
          "data": "0x0000000000000000000000000000000000000000000000000000000000000040000000000000000000000000000000000000000000000000000000000000008000000000000000000000000000000000000000000000000000000000000000144d6f6f6e427269646765204c50202d204d4f4f4e00000000000000000000000000000000000000000000000000000000000000000000000000000000000000066d624d4f4f4e0000000000000000000000000000000000000000000000000000",
          "blockHash": "0x1054d4713e8efad7257829d31e25df6ce6dc8e2cdf30921449d946a8c13b6ece",
          "blockNumber": "0x50a268e",
          "blockTimestamp": "0x6970fd9b",
          "transactionHash": "0x4289e5c51759a63198796d8b2d12ac409103fc0de8d1512da4c413d0099ddec9",
          "transactionIndex": "0x1",
          "logIndex": "0x0",
          "removed": false
        },
        {
          "address": "0xd7454c00e705d724140b31ddc9a63e45cc0e1b9c",
          "topics": [
            "0x262b5427891a0da5dc7f9b0786beb6c76f11d540b00b1f2d86135006059c6de9",
            "0x78b990e790955e3223e7f6026c5e6bae49272a811026f1d7a7abd2604b268465"
          ],
          "data": "0x0000000000000000000000000057ac2d777797d31cd3f8f13bf5e927571d6ad000000000000000000000000080601a7bcad9ab95694a4976e880d3f2d5b6d181",
          "blockHash": "0x1054d4713e8efad7257829d31e25df6ce6dc8e2cdf30921449d946a8c13b6ece",
          "blockNumber": "0x50a268e",
          "blockTimestamp": "0x6970fd9b",
          "transactionHash": "0x4289e5c51759a63198796d8b2d12ac409103fc0de8d1512da4c413d0099ddec9",
          "transactionIndex": "0x1",
          "logIndex": "0x1",
          "removed": false
        }
      ],
      "logsBloom": "0x00000000000000000000001000000000000000000000000002000000000000000000000400000000000000020000000008000000100000000000000000008000000000100000000000000010000000000000000000000400000000000000000000000000000000000000000000000000000000001000000000000000000000000000000000200000000000000000000000000000000000000010000000000000000000000000000000000000000000000000000000000000400000480000000000000000000008000000000000800000000000000000000800000000000000000000000080000000000000000000000000000000000000000000000000000004",
      "type": "0x2",
      "transactionHash": "0x4289e5c51759a63198796d8b2d12ac409103fc0de8d1512da4c413d0099ddec9",
      "transactionIndex": "0x1",
      "blockHash": "0x1054d4713e8efad7257829d31e25df6ce6dc8e2cdf30921449d946a8c13b6ece",
      "blockNumber": "0x50a268e",
      "gasUsed": "0x798da",
      "effectiveGasPrice": "0x1312d00",
      "from": "0x536afd811809e2ea5d8a66ff0c42b7a5d9de2093",
      "to": "0xd7454c00e705d724140b31ddc9a63e45cc0e1b9c",
      "contractAddress": null,
      "gasUsedForL1": "0x31dc9",
      "l1BlockNumber": "0x1728cb2",
      "timeboosted": false
    },
    {
      "status": "0x1",
      "cumulativeGasUsed": "0x7286b",
      "logs": [
        {
          "address": "0xe977a3adaa04a735844afd7f0f8c18a56ddddaf8",
          "topics": [
            "0x9860c564cdaf58c10f9794cae677e0b82d804422ba5542dd4ffb2dc42591285f",
            "0x0000000000000000000000002e1d61c383d2838862f522dcae85d4320177e778",
            "0x000000000000000000000000d7454c00e705d724140b31ddc9a63e45cc0e1b9c"
          ],
          "data": "0x0000000000000000000000000000000000000000000000000000000000000040000000000000000000000000000000000000000000000000000000000000008000000000000000000000000000000000000000000000000000000000000000134d6f6f6e427269646765204c50202d204554480000000000000000000000000000000000000000000000000000000000000000000000000000000000000000056d62455448000000000000000000000000000000000000000000000000000000",
          "blockHash": "0x46bbe8e8223a36e544937e6aca654e507c2e924baeec3920b1aa3316ca5b9f42",
          "blockNumber": "0x50a268f",
          "blockTimestamp": "0x6970fd9d",
          "transactionHash": "0xa9db90a7693e6ea0378f15ff7b82a8556df05c492e3de9b563e59ae250b19fca",
          "transactionIndex": "0x1",
          "logIndex": "0x0",
          "removed": false
        },
        {
          "address": "0xd7454c00e705d724140b31ddc9a63e45cc0e1b9c",
          "topics": [
            "0x262b5427891a0da5dc7f9b0786beb6c76f11d540b00b1f2d86135006059c6de9",
            "0xaaaebeba3810b1e6b70781f14b2d72c1cb89c0b2b320c43bb67ff79f562f5ff4"
          ],
          "data": "0x000000000000000000000000eeeeeeeeeeeeeeeeeeeeeeeeeeeeeeeeeeeeeeee0000000000000000000000002e1d61c383d2838862f522dcae85d4320177e778",
          "blockHash": "0x46bbe8e8223a36e544937e6aca654e507c2e924baeec3920b1aa3316ca5b9f42",
          "blockNumber": "0x50a268f",
          "blockTimestamp": "0x6970fd9d",
          "transactionHash": "0xa9db90a7693e6ea0378f15ff7b82a8556df05c492e3de9b563e59ae250b19fca",
          "transactionIndex": "0x1",
          "logIndex": "0x1",
          "removed": false
        }
      ],
      "logsBloom": "0x00000000000000000000001000000000000000000001000002000000000000000000000400000400000000000000000000000000100000000000000000008000000000100000000000000010000000000000000000000000000000000000000000000000000000000000000000000000000000041000000000000000000000000000000100000000000000008000000000000000000000000010000000000000000000000000000000000000000000000000000000000000400000480000000000000000000008000000000000000000000000000000000800001000000000000000000080000000000000000000000000000000000000000000000000000000",
      "type": "0x2",
      "transactionHash": "0xa9db90a7693e6ea0378f15ff7b82a8556df05c492e3de9b563e59ae250b19fca",
      "transactionIndex": "0x1",
      "blockHash": "0x46bbe8e8223a36e544937e6aca654e507c2e924baeec3920b1aa3316ca5b9f42",
      "blockNumber": "0x50a268f",
      "gasUsed": "0x7286b",
      "effectiveGasPrice": "0x1312d00",
      "from": "0x536afd811809e2ea5d8a66ff0c42b7a5d9de2093",
      "to": "0xd7454c00e705d724140b31ddc9a63e45cc0e1b9c",
      "contractAddress": null,
      "gasUsedForL1": "0x2f032",
      "l1BlockNumber": "0x1728cb2",
      "timeboosted": false
    },
    {
      "status": "0x1",
      "cumulativeGasUsed": "0x75b2b",
      "logs": [
        {
          "address": "0xe977a3adaa04a735844afd7f0f8c18a56ddddaf8",
          "topics": [
            "0x9860c564cdaf58c10f9794cae677e0b82d804422ba5542dd4ffb2dc42591285f",
            "0x000000000000000000000000d80fb8c8e57bf56009bd787fc800e6fc3a268d34",
            "0x000000000000000000000000d7454c00e705d724140b31ddc9a63e45cc0e1b9c"
          ],
          "data": "0x0000000000000000000000000000000000000000000000000000000000000040000000000000000000000000000000000000000000000000000000000000008000000000000000000000000000000000000000000000000000000000000000144d6f6f6e427269646765204c50202d205553444300000000000000000000000000000000000000000000000000000000000000000000000000000000000000066d62555344430000000000000000000000000000000000000000000000000000",
          "blockHash": "0xc46edbffa7cb44d18731daa93541abafb41630b4299f33b982ac3cb3e12cc659",
          "blockNumber": "0x50a2691",
          "blockTimestamp": "0x6970fd9f",
          "transactionHash": "0xfc914683e33eb7e80e3bd979708ca18a87ef9f1c68f0c905642c589893a67507",
          "transactionIndex": "0x1",
          "logIndex": "0x0",
          "removed": false
        },
        {
          "address": "0xd7454c00e705d724140b31ddc9a63e45cc0e1b9c",
          "topics": [
            "0x262b5427891a0da5dc7f9b0786beb6c76f11d540b00b1f2d86135006059c6de9",
            "0xd6aca1be9729c13d677335161321649cccae6a591554772516700f986f942eaa"
          ],
          "data": "0x000000000000000000000000750ba8b76187092b0d1e87e28daaf484d1b5273b000000000000000000000000d80fb8c8e57bf56009bd787fc800e6fc3a268d34",
          "blockHash": "0xc46edbffa7cb44d18731daa93541abafb41630b4299f33b982ac3cb3e12cc659",
          "blockNumber": "0x50a2691",
          "blockTimestamp": "0x6970fd9f",
          "transactionHash": "0xfc914683e33eb7e80e3bd979708ca18a87ef9f1c68f0c905642c589893a67507",
          "transactionIndex": "0x1",
          "logIndex": "0x1",
          "removed": false
        }
      ],
      "logsBloom": "0x00000000000000000000001000000000000000000000000002000000000000000000000c00000000000000000000000000000000120000000000000000008000000000100000000000000010000000000000000000000000000000000000000000000000000000000000000000000000000000001000000000000000000000000000000000000000000001000000000000000000000000000010000000000000000000000000000000000000000000000000000000000000400000480000000000200000000008000000000000000000000000000000080800000000000000000000000080000000000000000000000000000000000000000000000000000000",
      "type": "0x2",
      "transactionHash": "0xfc914683e33eb7e80e3bd979708ca18a87ef9f1c68f0c905642c589893a67507",
      "transactionIndex": "0x1",
      "blockHash": "0xc46edbffa7cb44d18731daa93541abafb41630b4299f33b982ac3cb3e12cc659",
      "blockNumber": "0x50a2691",
      "gasUsed": "0x75b2b",
      "effectiveGasPrice": "0x1312d00",
      "from": "0x536afd811809e2ea5d8a66ff0c42b7a5d9de2093",
      "to": "0xd7454c00e705d724140b31ddc9a63e45cc0e1b9c",
      "contractAddress": null,
      "gasUsedForL1": "0x322da",
      "l1BlockNumber": "0x1728cb3",
      "timeboosted": false
    }
  ],
  "libraries": [],
  "pending": [],
  "returns": {},
  "timestamp": 1769012641272,
  "chain": 42170,
  "commit": "fbc8a69"
}