{
  "transactions": [
    {
      "hash": "0xb54eb83c0df65055a178596738268cdfe489adf5a9a35383bb4c06f7324d8c0f",
      "transactionType": "CALL",
      "contractName": null,
      "contractAddress": "0x609b1430b6575590f5c75bcb7db261007d5fed41",
      "function": "addAsset(bytes32,address,string,string)",
      "arguments": [
        "0x78b990e790955e3223e7f6026c5e6bae49272a811026f1d7a7abd2604b268465",
        "0x24404DC041d74cd03cFE28855F555559390C931b",
        "MoonBridge LP - MOON",
        "mbMOON"
      ],
      "transaction": {
        "from": "0x536afd811809e2ea5d8a66ff0c42b7a5d9de2093",
        "to": "0x609b1430b6575590f5c75bcb7db261007d5fed41",
        "gas": "0x5f6c7",
        "value": "0x0",
        "input": "0x084729b878b990e790955e3223e7f6026c5e6bae49272a811026f1d7a7abd2604b26846500000000000000000000000024404dc041d74cd03cfe28855f555559390c931b000000000000000000000000000000000000000000000000000000000000008000000000000000000000000000000000000000000000000000000000000000c000000000000000000000000000000000000000000000000000000000000000144d6f6f6e427269646765204c50202d204d4f4f4e00000000000000000000000000000000000000000000000000000000000000000000000000000000000000066d624d4f4f4e0000000000000000000000000000000000000000000000000000",
        "nonce": "0x8",
        "chainId": "0xa4b1"
      },
      "additionalContracts": [
        {
          "transactionType": "CREATE",
          "contractName": null,
          "address": "0x088e89adf26e4158e59333c578396660ceec709d",
          "initCode": "0x3d602d80600a3d3981f3363d3d373d3d3d363d73e977a3adaa04a735844afd7f0f8c18a56ddddaf85af43d82803e903d91602b57fd5bf3"
        }
      ],
      "isFixedGasLimit": false
    },
    {
      "hash": "0xc1016c6dda92f80ec8608e897d137263a5f3f4fa674eb3ce33d1a1cf2d4a60b2",
      "transactionType": "CALL",
      "contractName": null,
      "contractAddress": "0x609b1430b6575590f5c75bcb7db261007d5fed41",
      "function": "addAsset(bytes32,address,string,string)",
      "arguments": [
        "0xaaaebeba3810b1e6b70781f14b2d72c1cb89c0b2b320c43bb67ff79f562f5ff4",
        "0xEeeeeEeeeEeEeeEeEeEeeEEEeeeeEeeeeeeeEEeE",
        "MoonBridge LP - ETH",
        "mbETH"
      ],
      "transaction": {
        "from": "0x536afd811809e2ea5d8a66ff0c42b7a5d9de2093",
        "to": "0x609b1430b6575590f5c75bcb7db261007d5fed41",
        "gas": "0x5f6a8",
        "value": "0x0",
        "input": "0x084729b8aaaebeba3810b1e6b70781f14b2d72c1cb89c0b2b320c43bb67ff79f562f5ff4000000000000000000000000eeeeeeeeeeeeeeeeeeeeeeeeeeeeeeeeeeeeeeee000000000000000000000000000000000000000000000000000000000000008000000000000000000000000000000000000000000000000000000000000000c000000000000000000000000000000000000000000000000000000000000000134d6f6f6e427269646765204c50202d204554480000000000000000000000000000000000000000000000000000000000000000000000000000000000000000056d62455448000000000000000000000000000000000000000000000000000000",
        "nonce": "0x9",
        "chainId": "0xa4b1"
      },
      "additionalContracts": [
        {
          "transactionType": "CREATE",
          "contractName": null,
          "address": "0x79919783d1530f5817d98d4c056999cb472c902b",
          "initCode": "0x3d602d80600a3d3981f3363d3d373d3d3d363d73e977a3adaa04a735844afd7f0f8c18a56ddddaf85af43d82803e903d91602b57fd5bf3"
        }
      ],
      "isFixedGasLimit": false
    },
    {
      "hash": "0x67b956d5ba02cd320569d548a4bdef49f7c20227c6f73ac6ab2be3cf7a386843",
      "transactionType": "CALL",
      "contractName": null,
      "contractAddress": "0x609b1430b6575590f5c75bcb7db261007d5fed41",
      "function": "addAsset(bytes32,address,string,string)",
      "arguments": [
        "0xd6aca1be9729c13d677335161321649cccae6a591554772516700f986f942eaa",
        "0xaf88d065e77c8cC2239327C5EDb3A432268e5831",
        "MoonBridge LP - USDC",
        "mbUSDC"
      ],
      "transaction": {
        "from": "0x536afd811809e2ea5d8a66ff0c42b7a5d9de2093",
        "to": "0x609b1430b6575590f5c75bcb7db261007d5fed41",
        "gas": "0x5f6c7",
        "value": "0x0",
        "input": "0x084729b8d6aca1be9729c13d677335161321649cccae6a591554772516700f986f942eaa000000000000000000000000af88d065e77c8cc2239327c5edb3a432268e5831000000000000000000000000000000000000000000000000000000000000008000000000000000000000000000000000000000000000000000000000000000c000000000000000000000000000000000000000000000000000000000000000144d6f6f6e427269646765204c50202d205553444300000000000000000000000000000000000000000000000000000000000000000000000000000000000000066d62555344430000000000000000000000000000000000000000000000000000",
        "nonce": "0xa",
        "chainId": "0xa4b1"
      },
      "additionalContracts": [
        {
          "transactionType": "CREATE",
          "contractName": null,
          "address": "0x6de042ff6bdc5944977568cc405f07e78b18fb5a",
          "initCode": "0x3d602d80600a3d3981f3363d3d373d3d3d363d73e977a3adaa04a735844afd7f0f8c18a56ddddaf85af43d82803e903d91602b57fd5bf3"
        }
      ],
      "isFixedGasLimit": false
    },
    {
      "hash": "0x69c333ee2f5749ed113a840fd9542f411ddf6b4619a71dd5fa2fcbbb9d080de0",
      "transactionType": "CALL",
      "contractName": null,
      "contractAddress": "0x609b1430b6575590f5c75bcb7db261007d5fed41",
      "function": "addAsset(bytes32,address,string,string)",
      "arguments": [
        "0xdd5622de5b9f651f37acd8a00c4f6c0fdac3845741e08a475a0878212aacd668",
        "0xF42e2B8bc2aF8B110b65be98dB1321B1ab8D44f5",
        "MoonBridge LP - DONUT",
        "mbDONUT"
      ],
      "transaction": {
        "from": "0x536afd811809e2ea5d8a66ff0c42b7a5d9de2093",
        "to": "0x609b1430b6575590f5c75bcb7db261007d5fed41",
        "gas": "0x5f6e7",
        "value": "0x0",
        "input": "0x084729b8dd5622de5b9f651f37acd8a00c4f6c0fdac3845741e08a475a0878212aacd668000000000000000000000000f42e2b8bc2af8b110b65be98db1321b1ab8d44f5000000000000000000000000000000000000000000000000000000000000008000000000000000000000000000000000000000000000000000000000000000c000000000000000000000000000000000000000000000000000000000000000154d6f6f6e427269646765204c50202d20444f4e5554000000000000000000000000000000000000000000000000000000000000000000000000000000000000076d62444f4e555400000000000000000000000000000000000000000000000000",
        "nonce": "0xb",
        "chainId": "0xa4b1"
      },
      "additionalContracts": [
        {
          "transactionType": "CREATE",
          "contractName": null,
          "address": "0x57b7855bc43b67933989bf8fcab23f747b45d781",
          "initCode": "0x3d602d80600a3d3981f3363d3d373d3d3d363d73e977a3adaa04a735844afd7f0f8c18a56ddddaf85af43d82803e903d91602b57fd5bf3"
        }
      ],
      "isFixedGasLimit": false
    }
  ],
  "receipts": [
    {
      "status": "0x1",
      "cumulativeGasUsed": "0xb775e",
      "logs": [
        {
          "address": "0x3a2f8ab98aefbe892dfcccf4095404610996a67f",
          "topics": [
            "0x9860c564cdaf58c10f9794cae677e0b82d804422ba5542dd4ffb2dc42591285f",
            "0x000000000000000000000000088e89adf26e4158e59333c578396660ceec709d",
            "0x000000000000000000000000609b1430b6575590f5c75bcb7db261007d5fed41"
          ],
          "data": "0x0000000000000000000000000000000000000000000000000000000000000040000000000000000000000000000000000000000000000000000000000000008000000000000000000000000000000000000000000000000000000000000000144d6f6f6e427269646765204c50202d204d4f4f4e00000000000000000000000000000000000000000000000000000000000000000000000000000000000000066d624d4f4f4e0000000000000000000000000000000000000000000000000000",
          "blockHash": "0x9fd028717691fdc0fa738bf634a89bf3a66a6cb7d915feeceecd2a233e05a9b1",
          "blockNumber": "0x1941d96b",
          "blockTimestamp": "0x6970fed5",
          "transactionHash": "0xb54eb83c0df65055a178596738268cdfe489adf5a9a35383bb4c06f7324d8c0f",
          "transactionIndex": "0x4",
          "logIndex": "0x11",
          "removed": false
        },
        {
          "address": "0x609b1430b6575590f5c75bcb7db261007d5fed41",
          "topics": [
            "0x262b5427891a0da5dc7f9b0786beb6c76f11d540b00b1f2d86135006059c6de9",
            "0x78b990e790955e3223e7f6026c5e6bae49272a811026f1d7a7abd2604b268465"
          ],
          "data": "0x00000000000000000000000024404dc041d74cd03cfe28855f555559390c931b000000000000000000000000088e89adf26e4158e59333c578396660ceec709d",
          "blockHash": "0x9fd028717691fdc0fa738bf634a89bf3a66a6cb7d915feeceecd2a233e05a9b1",
          "blockNumber": "0x1941d96b",
          "blockTimestamp": "0x6970fed5",
          "transactionHash": "0xb54eb83c0df65055a178596738268cdfe489adf5a9a35383bb4c06f7324d8c0f",
          "transactionIndex": "0x4",
          "logIndex": "0x12",
          "removed": false
        }
      ],
      "logsBloom": "0x00000000000000000000000000000010000000000000000002000000000000000000000000000000000001020000000000000000000400000000000000008000000000000800000000000000000000000000010000000000000000000000000000000000000004000000000000000000000000001000000000000000000000000000000000200000000000000000000000000000000000000000000000000000000000000000000000000000000010060000000000000000000000480000000000000001000008000000000000000000000000000000000800000000000000000000000000000000002000000000000000000000000000000000000000000004",
      "type": "0x2",
      "transactionHash": "0xb54eb83c0df65055a178596738268cdfe489adf5a9a35383bb4c06f7324d8c0f",
      "transactionIndex": "0x4",
      "blockHash": "0x9fd028717691fdc0fa738bf634a89bf3a66a6cb7d915feeceecd2a233e05a9b1",
      "blockNumber": "0x1941d96b",
      "gasUsed": "0x47b1d",
      "effectiveGasPrice": "0x13989a0",
      "from": "0x536afd811809e2ea5d8a66ff0c42b7a5d9de2093",
      "to": "0x609b1430b6575590f5c75bcb7db261007d5fed41",
      "contractAddress": null,
      "gasUsedForL1": "0x0",
      "l1BlockNumber": "0x1728ccd",
      "timeboosted": false
    },
    {
      "status": "0x1",
      "cumulativeGasUsed": "0x4ed2a",
      "logs": [
        {
          "address": "0x3a2f8ab98aefbe892dfcccf4095404610996a67f",
          "topics": [
            "0x9860c564cdaf58c10f9794cae677e0b82d804422ba5542dd4ffb2dc42591285f",
            "0x00000000000000000000000079919783d1530f5817d98d4c056999cb472c902b",
            "0x000000000000000000000000609b1430b6575590f5c75bcb7db261007d5fed41"
          ],
          "data": "0x0000000000000000000000000000000000000000000000000000000000000040000000000000000000000000000000000000000000000000000000000000008000000000000000000000000000000000000000000000000000000000000000134d6f6f6e427269646765204c50202d204554480000000000000000000000000000000000000000000000000000000000000000000000000000000000000000056d62455448000000000000000000000000000000000000000000000000000000",
          "blockHash": "0x7e25a6c6ca981c442563edd244f32c92b2d56b4b971822483a47b62c61144e1b",
          "blockNumber": "0x1941d975",
          "blockTimestamp": "0x6970fed7",
          "transactionHash": "0xc1016c6dda92f80ec8608e897d137263a5f3f4fa674eb3ce33d1a1cf2d4a60b2",
          "transactionIndex": "0x2",
          "logIndex": "0x1",
          "removed": false
        },
        {
          "address": "0x609b1430b6575590f5c75bcb7db261007d5fed41",
          "topics": [
            "0x262b5427891a0da5dc7f9b0786beb6c76f11d540b00b1f2d86135006059c6de9",
            "0xaaaebeba3810b1e6b70781f14b2d72c1cb89c0b2b320c43bb67ff79f562f5ff4"
          ],
          "data": "0x000000000000000000000000eeeeeeeeeeeeeeeeeeeeeeeeeeeeeeeeeeeeeeee00000000000000000000000079919783d1530f5817d98d4c056999cb472c902b",
          "blockHash": "0x7e25a6c6ca981c442563edd244f32c92b2d56b4b971822483a47b62c61144e1b",
          "blockNumber": "0x1941d975",
          "blockTimestamp": "0x6970fed7",
          "transactionHash": "0xc1016c6dda92f80ec8608e897d137263a5f3f4fa674eb3ce33d1a1cf2d4a60b2",
          "transactionIndex": "0x2",
          "logIndex": "0x2",
          "removed": false
        }
      ],
      "logsBloom": "0x00000000000000000000000000000000000000000000000002000000000000000000000000000000000001000000000000000000000400000000000000008000001000000000000000000000000000000000010000000000000000000000000000000000000004000000000000000000000000041000000000000000000000000000000000000000000000008000000000000000000000000000000000000000000000000000000000000000000010060000000000000000000000480000000000000000000008000000000000000000000000400000000800001000000000000000000000080000002000000000000000000000000000000000000000000000",
      "type": "0x2",
      "transactionHash": "0xc1016c6dda92f80ec8608e897d137263a5f3f4fa674eb3ce33d1a1cf2d4a60b2",
      "transactionIndex": "0x2",
      "blockHash": "0x7e25a6c6ca981c442563edd244f32c92b2d56b4b971822483a47b62c61144e1b",
      "blockNumber": "0x1941d975",
      "gasUsed": "0x43839",
      "effectiveGasPrice": "0x13f0fb0",
      "from": "0x536afd811809e2ea5d8a66ff0c42b7a5d9de2093",
      "to": "0x609b1430b6575590f5c75bcb7db261007d5fed41",
      "contractAddress": null,
      "gasUsedForL1": "0x0",
      "l1BlockNumber": "0x1728ccd",
      "timeboosted": false
    },
    {
      "status": "0x1",
      "cumulativeGasUsed": "0x43851",
      "logs": [
        {
          "address": "0x3a2f8ab98aefbe892dfcccf4095404610996a67f",
          "topics": [
            "0x9860c564cdaf58c10f9794cae677e0b82d804422ba5542dd4ffb2dc42591285f",
            "0x0000000000000000000000006de042ff6bdc5944977568cc405f07e78b18fb5a",
            "0x000000000000000000000000609b1430b6575590f5c75bcb7db261007d5fed41"
          ],
          "data": "0x0000000000000000000000000000000000000000000000000000000000000040000000000000000000000000000000000000000000000000000000000000008000000000000000000000000000000000000000000000000000000000000000144d6f6f6e427269646765204c50202d205553444300000000000000000000000000000000000000000000000000000000000000000000000000000000000000066d62555344430000000000000000000000000000000000000000000000000000",
          "blockHash": "0xf5c83db7114a7194404f304a7c5c4e1f9633517dccd4a6559e5d0088a8e610e8",
          "blockNumber": "0x1941d97f",
          "blockTimestamp": "0x6970feda",
          "transactionHash": "0x67b956d5ba02cd320569d548a4bdef49f7c20227c6f73ac6ab2be3cf7a386843",
          "transactionIndex": "0x1",
          "logIndex": "0x0",
          "removed": false
        },
        {
          "address": "0x609b1430b6575590f5c75bcb7db261007d5fed41",
          "topics": [
            "0x262b5427891a0da5dc7f9b0786beb6c76f11d540b00b1f2d86135006059c6de9",
            "0xd6aca1be9729c13d677335161321649cccae6a591554772516700f986f942eaa"
          ],
          "data": "0x000000000000000000000000af88d065e77c8cc2239327c5edb3a432268e58310000000000000000000000006de042ff6bdc5944977568cc405f07e78b18fb5a",
          "blockHash": "0xf5c83db7114a7194404f304a7c5c4e1f9633517dccd4a6559e5d0088a8e610e8",
          "blockNumber": "0x1941d97f",
          "blockTimestamp": "0x6970feda",
          "transactionHash": "0x67b956d5ba02cd320569d548a4bdef49f7c20227c6f73ac6ab2be3cf7a386843",
          "transactionIndex": "0x1",
          "logIndex": "0x1",
          "removed": false
        }
      ],
      "logsBloom": "0x00000000000000000000000000000000000000000000000002000000000000000000000c00000000000001000000000000000000020400000000000000008000000000000000000000000000000000000000010000000000000000000000000000000000000004000000000000000000000000001000000000000000000000000000000000000000000000000000000000000000000000000000000000000000000000000000000000000000000010060000000000000000008000480000000000000000000008001000000000000000000000000000080800000000000000000000000000000000002000000000000000000000000000000000000000000000",
      "type": "0x2",
      "transactionHash": "0x67b956d5ba02cd320569d548a4bdef49f7c20227c6f73ac6ab2be3cf7a386843",
      "transactionIndex": "0x1",
      "blockHash": "0xf5c83db7114a7194404f304a7c5c4e1f9633517dccd4a6559e5d0088a8e610e8",
      "blockNumber": "0x1941d97f",
      "gasUsed": "0x43851",
      "effectiveGasPrice": "0x13981d0",
      "from": "0x536afd811809e2ea5d8a66ff0c42b7a5d9de2093",
      "to": "0x609b1430b6575590f5c75bcb7db261007d5fed41",
      "contractAddress": null,
      "gasUsedForL1": "0x0",
      "l1BlockNumber": "0x1728ccd",
      "timeboosted": false
    },
    {
      "status": "0x1",
      "cumulativeGasUsed": "0x5d025",
      "logs": [
        {
          "address": "0x3a2f8ab98aefbe892dfcccf4095404610996a67f",
          "topics": [
            "0x9860c564cdaf58c10f9794cae677e0b82d804422ba5542dd4ffb2dc42591285f",
            "0x00000000000000000000000057b7855bc43b67933989bf8fcab23f747b45d781",
            "0x000000000000000000000000609b1430b6575590f5c75bcb7db261007d5fed41"
          ],
          "data": "0x0000000000000000000000000000000000000000000000000000000000000040000000000000000000000000000000000000000000000000000000000000008000000000000000000000000000000000000000000000000000000000000000154d6f6f6e427269646765204c50202d20444f4e5554000000000000000000000000000000000000000000000000000000000000000000000000000000000000076d62444f4e555400000000000000000000000000000000000000000000000000",
          "blockHash": "0x8e6d147c6ff9e37f8f13cd6e3071aeb6a38946a2f20ce74c85b7b645423d0723",
          "blockNumber": "0x1941d989",
          "blockTimestamp": "0x6970fedc",
          "transactionHash": "0x69c333ee2f5749ed113a840fd9542f411ddf6b4619a71dd5fa2fcbbb9d080de0",
          "transactionIndex": "0x3",
          "logIndex": "0x1",
          "removed": false
        },
        {
          "address": "0x609b1430b6575590f5c75bcb7db261007d5fed41",
          "topics": [
            "0x262b5427891a0da5dc7f9b0786beb6c76f11d540b00b1f2d86135006059c6de9",
            "0xdd5622de5b9f651f37acd8a00c4f6c0fdac3845741e08a475a0878212aacd668"
          ],
          "data": "0x000000000000000000000000f42e2b8bc2af8b110b65be98db1321b1ab8d44f500000000000000000000000057b7855bc43b67933989bf8fcab23f747b45d781",
          "blockHash": "0x8e6d147c6ff9e37f8f13cd6e3071aeb6a38946a2f20ce74c85b7b645423d0723",
          "blockNumber": "0x1941d989",
          "blockTimestamp": "0x6970fedc",
          "transactionHash": "0x69c333ee2f5749ed113a840fd9542f411ddf6b4619a71dd5fa2fcbbb9d080de0",
          "transactionIndex": "0x3",
          "logIndex": "0x2",
          "removed": false
        }
      ],
      "logsBloom": "0x00000000000000000008000000000000000000000000000002000000000000000000000000000000000001000010000000000000000400000000000000008000000000000000000000000000000000001000010000000000000000000000000000000000000004000000000000000000000000001000000000000000000010000000000000000000000000000000000000000000000000000000000000010000000000000000000000000000000010064000000000000000000000480000000000000000000008000000000000000000000000000000000800000000000000000000000000000000002000000000000000000000000000000000000000000000",
      "type": "0x2",
      "transactionHash": "0x69c333ee2f5749ed113a840fd9542f411ddf6b4619a71dd5fa2fcbbb9d080de0",
      "transactionIndex": "0x3",
      "blockHash": "0x8e6d147c6ff9e37f8f13cd6e3071aeb6a38946a2f20ce74c85b7b645423d0723",
      "blockNumber": "0x1941d989",
      "gasUsed": "0x43869",
      "effectiveGasPrice": "0x13cecd0",
      "from": "0x536afd811809e2ea5d8a66ff0c42b7a5d9de2093",
      "to": "0x609b1430b6575590f5c75bcb7db261007d5fed41",
      "contractAddress": null,
      "gasUsedForL1": "0x0",
      "l1BlockNumber": "0x1728ccd",
      "timeboosted": false
    }
  ],
  "libraries": [],
  "pending": [],
  "returns": {},
  "timestamp": 1769012958748,
  "chain": 42161,
  "commit": "fbc8a69"
}